{
	"contracts/IPFSStorage.sol": {
		"IPFSStorage": {
			"abi": [
				{
					"inputs": [
						{
							"internalType": "string",
							"name": "targetContractAddress",
							"type": "string"
						}
					],
					"name": "getData",
					"outputs": [
						{
							"internalType": "string",
							"name": "",
							"type": "string"
						},
						{
							"internalType": "string[]",
							"name": "",
							"type": "string[]"
						},
						{
							"internalType": "uint256",
							"name": "",
							"type": "uint256"
						},
						{
							"internalType": "uint256",
							"name": "",
							"type": "uint256"
						}
					],
					"stateMutability": "view",
					"type": "function"
				},
				{
					"inputs": [
						{
							"internalType": "string",
							"name": "targetContractAddress",
							"type": "string"
						},
						{
							"internalType": "string[]",
							"name": "hashes",
							"type": "string[]"
						}
					],
					"name": "storeData",
					"outputs": [],
					"stateMutability": "nonpayable",
					"type": "function"
				}
			],
			"devdoc": {
				"kind": "dev",
				"methods": {},
				"version": 1
			},
			"evm": {
				"assembly": "    /* \"contracts/IPFSStorage.sol\":57:1192  contract IPFSStorage {... */\n  mstore(0x40, 0x80)\n  callvalue\n  dup1\n  iszero\n  tag_1\n  jumpi\n  0x00\n  dup1\n  revert\ntag_1:\n  pop\n  dataSize(sub_0)\n  dup1\n  dataOffset(sub_0)\n  0x00\n  codecopy\n  0x00\n  return\nstop\n\nsub_0: assembly {\n        /* \"contracts/IPFSStorage.sol\":57:1192  contract IPFSStorage {... */\n      mstore(0x40, 0x80)\n      callvalue\n      dup1\n      iszero\n      tag_1\n      jumpi\n      0x00\n      dup1\n      revert\n    tag_1:\n      pop\n      jumpi(tag_2, lt(calldatasize, 0x04))\n      shr(0xe0, calldataload(0x00))\n      dup1\n      0x7c59fdd8\n      eq\n      tag_3\n      jumpi\n      dup1\n      0xae55c888\n      eq\n      tag_4\n      jumpi\n    tag_2:\n      0x00\n      dup1\n      revert\n        /* \"contracts/IPFSStorage.sol\":392:859  function storeData(string memory targetContractAddress, string[] memory hashes) public {... */\n    tag_3:\n      tag_5\n      0x04\n      dup1\n      calldatasize\n      sub\n      dup2\n      add\n      swap1\n      tag_6\n      swap2\n      swap1\n      tag_7\n      jump\t// in\n    tag_6:\n      tag_8\n      jump\t// in\n    tag_5:\n      stop\n        /* \"contracts/IPFSStorage.sol\":901:1190  function getData(string memory targetContractAddress) public view returns (string memory, string[] memory, uint256, uint256) {... */\n    tag_4:\n      tag_9\n      0x04\n      dup1\n      calldatasize\n      sub\n      dup2\n      add\n      swap1\n      tag_10\n      swap2\n      swap1\n      tag_11\n      jump\t// in\n    tag_10:\n      tag_12\n      jump\t// in\n    tag_9:\n      mload(0x40)\n      tag_13\n      swap5\n      swap4\n      swap3\n      swap2\n      swap1\n      tag_14\n      jump\t// in\n    tag_13:\n      mload(0x40)\n      dup1\n      swap2\n      sub\n      swap1\n      return\n        /* \"contracts/IPFSStorage.sol\":392:859  function storeData(string memory targetContractAddress, string[] memory hashes) public {... */\n    tag_8:\n        /* \"contracts/IPFSStorage.sol\":489:510  IPFSData storage data */\n      0x00\n        /* \"contracts/IPFSStorage.sol\":513:521  ipfsData */\n      dup1\n        /* \"contracts/IPFSStorage.sol\":522:543  targetContractAddress */\n      dup4\n        /* \"contracts/IPFSStorage.sol\":513:544  ipfsData[targetContractAddress] */\n      mload(0x40)\n      tag_16\n      swap2\n      swap1\n      tag_17\n      jump\t// in\n    tag_16:\n      swap1\n      dup2\n      mstore\n      0x20\n      add\n      mload(0x40)\n      dup1\n      swap2\n      sub\n      swap1\n      keccak256\n        /* \"contracts/IPFSStorage.sol\":489:544  IPFSData storage data = ipfsData[targetContractAddress] */\n      swap1\n      pop\n        /* \"contracts/IPFSStorage.sol\":583:604  targetContractAddress */\n      dup3\n        /* \"contracts/IPFSStorage.sol\":554:558  data */\n      dup2\n        /* \"contracts/IPFSStorage.sol\":554:580  data.targetContractAddress */\n      0x00\n      add\n        /* \"contracts/IPFSStorage.sol\":554:604  data.targetContractAddress = targetContractAddress */\n      swap1\n      dup2\n      tag_18\n      swap2\n      swap1\n      tag_19\n      jump\t// in\n    tag_18:\n      pop\n        /* \"contracts/IPFSStorage.sol\":631:646  block.timestamp */\n      timestamp\n        /* \"contracts/IPFSStorage.sol\":614:618  data */\n      dup2\n        /* \"contracts/IPFSStorage.sol\":614:628  data.timestamp */\n      0x02\n      add\n        /* \"contracts/IPFSStorage.sol\":614:646  data.timestamp = block.timestamp */\n      dup2\n      swap1\n      sstore\n      pop\n        /* \"contracts/IPFSStorage.sol\":711:723  block.number */\n      number\n        /* \"contracts/IPFSStorage.sol\":692:696  data */\n      dup2\n        /* \"contracts/IPFSStorage.sol\":692:708  data.blockNumber */\n      0x03\n      add\n        /* \"contracts/IPFSStorage.sol\":692:723  data.blockNumber = block.number */\n      dup2\n      swap1\n      sstore\n      pop\n        /* \"contracts/IPFSStorage.sol\":765:771  uint i */\n      0x00\n        /* \"contracts/IPFSStorage.sol\":760:853  for (uint i = 0; i < hashes.length; i++) {... */\n    tag_20:\n        /* \"contracts/IPFSStorage.sol\":781:787  hashes */\n      dup3\n        /* \"contracts/IPFSStorage.sol\":781:794  hashes.length */\n      mload\n        /* \"contracts/IPFSStorage.sol\":777:778  i */\n      dup2\n        /* \"contracts/IPFSStorage.sol\":777:794  i < hashes.length */\n      lt\n        /* \"contracts/IPFSStorage.sol\":760:853  for (uint i = 0; i < hashes.length; i++) {... */\n      iszero\n      tag_21\n      jumpi\n        /* \"contracts/IPFSStorage.sol\":815:819  data */\n      dup2\n        /* \"contracts/IPFSStorage.sol\":815:826  data.hashes */\n      0x01\n      add\n        /* \"contracts/IPFSStorage.sol\":832:838  hashes */\n      dup4\n        /* \"contracts/IPFSStorage.sol\":839:840  i */\n      dup3\n        /* \"contracts/IPFSStorage.sol\":832:841  hashes[i] */\n      dup2\n      mload\n      dup2\n      lt\n      tag_23\n      jumpi\n      tag_24\n      tag_25\n      jump\t// in\n    tag_24:\n    tag_23:\n      0x20\n      mul\n      0x20\n      add\n      add\n      mload\n        /* \"contracts/IPFSStorage.sol\":815:842  data.hashes.push(hashes[i]) */\n      swap1\n      dup1\n      0x01\n      dup2\n      sload\n      add\n      dup1\n      dup3\n      sstore\n      dup1\n      swap2\n      pop\n      pop\n      0x01\n      swap1\n      sub\n      swap1\n      0x00\n      mstore\n      keccak256(0x00, 0x20)\n      add\n      0x00\n      swap1\n      swap2\n      swap1\n      swap2\n      swap1\n      swap2\n      pop\n      swap1\n      dup2\n      tag_27\n      swap2\n      swap1\n      tag_19\n      jump\t// in\n    tag_27:\n      pop\n        /* \"contracts/IPFSStorage.sol\":796:799  i++ */\n      dup1\n      dup1\n      0x01\n      add\n      swap2\n      pop\n      pop\n        /* \"contracts/IPFSStorage.sol\":760:853  for (uint i = 0; i < hashes.length; i++) {... */\n      jump(tag_20)\n    tag_21:\n      pop\n        /* \"contracts/IPFSStorage.sol\":479:859  {... */\n      pop\n        /* \"contracts/IPFSStorage.sol\":392:859  function storeData(string memory targetContractAddress, string[] memory hashes) public {... */\n      pop\n      pop\n      jump\t// out\n        /* \"contracts/IPFSStorage.sol\":901:1190  function getData(string memory targetContractAddress) public view returns (string memory, string[] memory, uint256, uint256) {... */\n    tag_12:\n        /* \"contracts/IPFSStorage.sol\":976:989  string memory */\n      0x60\n        /* \"contracts/IPFSStorage.sol\":991:1006  string[] memory */\n      dup1\n        /* \"contracts/IPFSStorage.sol\":1008:1015  uint256 */\n      0x00\n        /* \"contracts/IPFSStorage.sol\":1017:1024  uint256 */\n      dup1\n        /* \"contracts/IPFSStorage.sol\":1036:1057  IPFSData storage data */\n      0x00\n        /* \"contracts/IPFSStorage.sol\":1060:1068  ipfsData */\n      dup1\n        /* \"contracts/IPFSStorage.sol\":1069:1090  targetContractAddress */\n      dup7\n        /* \"contracts/IPFSStorage.sol\":1060:1091  ipfsData[targetContractAddress] */\n      mload(0x40)\n      tag_29\n      swap2\n      swap1\n      tag_17\n      jump\t// in\n    tag_29:\n      swap1\n      dup2\n      mstore\n      0x20\n      add\n      mload(0x40)\n      dup1\n      swap2\n      sub\n      swap1\n      keccak256\n        /* \"contracts/IPFSStorage.sol\":1036:1091  IPFSData storage data = ipfsData[targetContractAddress] */\n      swap1\n      pop\n        /* \"contracts/IPFSStorage.sol\":1109:1113  data */\n      dup1\n        /* \"contracts/IPFSStorage.sol\":1109:1135  data.targetContractAddress */\n      0x00\n      add\n        /* \"contracts/IPFSStorage.sol\":1137:1141  data */\n      dup2\n        /* \"contracts/IPFSStorage.sol\":1137:1148  data.hashes */\n      0x01\n      add\n        /* \"contracts/IPFSStorage.sol\":1150:1154  data */\n      dup3\n        /* \"contracts/IPFSStorage.sol\":1150:1164  data.timestamp */\n      0x02\n      add\n      sload\n        /* \"contracts/IPFSStorage.sol\":1166:1170  data */\n      dup4\n        /* \"contracts/IPFSStorage.sol\":1166:1182  data.blockNumber */\n      0x03\n      add\n      sload\n        /* \"contracts/IPFSStorage.sol\":1101:1183  return (data.targetContractAddress, data.hashes, data.timestamp, data.blockNumber) */\n      dup4\n      dup1\n      sload\n      tag_30\n      swap1\n      tag_31\n      jump\t// in\n    tag_30:\n      dup1\n      0x1f\n      add\n      0x20\n      dup1\n      swap2\n      div\n      mul\n      0x20\n      add\n      mload(0x40)\n      swap1\n      dup2\n      add\n      0x40\n      mstore\n      dup1\n      swap3\n      swap2\n      swap1\n      dup2\n      dup2\n      mstore\n      0x20\n      add\n      dup3\n      dup1\n      sload\n      tag_32\n      swap1\n      tag_31\n      jump\t// in\n    tag_32:\n      dup1\n      iszero\n      tag_33\n      jumpi\n      dup1\n      0x1f\n      lt\n      tag_34\n      jumpi\n      0x0100\n      dup1\n      dup4\n      sload\n      div\n      mul\n      dup4\n      mstore\n      swap2\n      0x20\n      add\n      swap2\n      jump(tag_33)\n    tag_34:\n      dup3\n      add\n      swap2\n      swap1\n      0x00\n      mstore\n      keccak256(0x00, 0x20)\n      swap1\n    tag_35:\n      dup2\n      sload\n      dup2\n      mstore\n      swap1\n      0x01\n      add\n      swap1\n      0x20\n      add\n      dup1\n      dup4\n      gt\n      tag_35\n      jumpi\n      dup3\n      swap1\n      sub\n      0x1f\n      and\n      dup3\n      add\n      swap2\n    tag_33:\n      pop\n      pop\n      pop\n      pop\n      pop\n      swap4\n      pop\n      dup3\n      dup1\n      sload\n      dup1\n      0x20\n      mul\n      0x20\n      add\n      mload(0x40)\n      swap1\n      dup2\n      add\n      0x40\n      mstore\n      dup1\n      swap3\n      swap2\n      swap1\n      dup2\n      dup2\n      mstore\n      0x20\n      add\n      0x00\n      swap1\n    tag_36:\n      dup3\n      dup3\n      lt\n      iszero\n      tag_37\n      jumpi\n      dup4\n      dup3\n      swap1\n      0x00\n      mstore\n      keccak256(0x00, 0x20)\n      add\n      dup1\n      sload\n      tag_39\n      swap1\n      tag_31\n      jump\t// in\n    tag_39:\n      dup1\n      0x1f\n      add\n      0x20\n      dup1\n      swap2\n      div\n      mul\n      0x20\n      add\n      mload(0x40)\n      swap1\n      dup2\n      add\n      0x40\n      mstore\n      dup1\n      swap3\n      swap2\n      swap1\n      dup2\n      dup2\n      mstore\n      0x20\n      add\n      dup3\n      dup1\n      sload\n      tag_40\n      swap1\n      tag_31\n      jump\t// in\n    tag_40:\n      dup1\n      iszero\n      tag_41\n      jumpi\n      dup1\n      0x1f\n      lt\n      tag_42\n      jumpi\n      0x0100\n      dup1\n      dup4\n      sload\n      div\n      mul\n      dup4\n      mstore\n      swap2\n      0x20\n      add\n      swap2\n      jump(tag_41)\n    tag_42:\n      dup3\n      add\n      swap2\n      swap1\n      0x00\n      mstore\n      keccak256(0x00, 0x20)\n      swap1\n    tag_43:\n      dup2\n      sload\n      dup2\n      mstore\n      swap1\n      0x01\n      add\n      swap1\n      0x20\n      add\n      dup1\n      dup4\n      gt\n      tag_43\n      jumpi\n      dup3\n      swap1\n      sub\n      0x1f\n      and\n      dup3\n      add\n      swap2\n    tag_41:\n      pop\n      pop\n      pop\n      pop\n      pop\n      dup2\n      mstore\n      0x20\n      add\n      swap1\n      0x01\n      add\n      swap1\n      jump(tag_36)\n    tag_37:\n      pop\n      pop\n      pop\n      pop\n      swap3\n      pop\n      swap5\n      pop\n      swap5\n      pop\n      swap5\n      pop\n      swap5\n      pop\n      pop\n        /* \"contracts/IPFSStorage.sol\":901:1190  function getData(string memory targetContractAddress) public view returns (string memory, string[] memory, uint256, uint256) {... */\n      swap2\n      swap4\n      pop\n      swap2\n      swap4\n      jump\t// out\n        /* \"#utility.yul\":7:82   */\n    tag_44:\n        /* \"#utility.yul\":40:46   */\n      0x00\n        /* \"#utility.yul\":73:75   */\n      0x40\n        /* \"#utility.yul\":67:76   */\n      mload\n        /* \"#utility.yul\":57:76   */\n      swap1\n      pop\n        /* \"#utility.yul\":7:82   */\n      swap1\n      jump\t// out\n        /* \"#utility.yul\":88:205   */\n    tag_45:\n        /* \"#utility.yul\":197:198   */\n      0x00\n        /* \"#utility.yul\":194:195   */\n      dup1\n        /* \"#utility.yul\":187:199   */\n      revert\n        /* \"#utility.yul\":211:328   */\n    tag_46:\n        /* \"#utility.yul\":320:321   */\n      0x00\n        /* \"#utility.yul\":317:318   */\n      dup1\n        /* \"#utility.yul\":310:322   */\n      revert\n        /* \"#utility.yul\":334:451   */\n    tag_47:\n        /* \"#utility.yul\":443:444   */\n      0x00\n        /* \"#utility.yul\":440:441   */\n      dup1\n        /* \"#utility.yul\":433:445   */\n      revert\n        /* \"#utility.yul\":457:574   */\n    tag_48:\n        /* \"#utility.yul\":566:567   */\n      0x00\n        /* \"#utility.yul\":563:564   */\n      dup1\n        /* \"#utility.yul\":556:568   */\n      revert\n        /* \"#utility.yul\":580:682   */\n    tag_49:\n        /* \"#utility.yul\":621:627   */\n      0x00\n        /* \"#utility.yul\":672:674   */\n      0x1f\n        /* \"#utility.yul\":668:675   */\n      not\n        /* \"#utility.yul\":663:665   */\n      0x1f\n        /* \"#utility.yul\":656:661   */\n      dup4\n        /* \"#utility.yul\":652:666   */\n      add\n        /* \"#utility.yul\":648:676   */\n      and\n        /* \"#utility.yul\":638:676   */\n      swap1\n      pop\n        /* \"#utility.yul\":580:682   */\n      swap2\n      swap1\n      pop\n      jump\t// out\n        /* \"#utility.yul\":688:868   */\n    tag_50:\n        /* \"#utility.yul\":736:813   */\n      0x4e487b7100000000000000000000000000000000000000000000000000000000\n        /* \"#utility.yul\":733:734   */\n      0x00\n        /* \"#utility.yul\":726:814   */\n      mstore\n        /* \"#utility.yul\":833:837   */\n      0x41\n        /* \"#utility.yul\":830:831   */\n      0x04\n        /* \"#utility.yul\":823:838   */\n      mstore\n        /* \"#utility.yul\":857:861   */\n      0x24\n        /* \"#utility.yul\":854:855   */\n      0x00\n        /* \"#utility.yul\":847:862   */\n      revert\n        /* \"#utility.yul\":874:1155   */\n    tag_51:\n        /* \"#utility.yul\":957:984   */\n      tag_102\n        /* \"#utility.yul\":979:983   */\n      dup3\n        /* \"#utility.yul\":957:984   */\n      tag_49\n      jump\t// in\n    tag_102:\n        /* \"#utility.yul\":949:955   */\n      dup2\n        /* \"#utility.yul\":945:985   */\n      add\n        /* \"#utility.yul\":1087:1093   */\n      dup2\n        /* \"#utility.yul\":1075:1085   */\n      dup2\n        /* \"#utility.yul\":1072:1094   */\n      lt\n        /* \"#utility.yul\":1051:1069   */\n      0xffffffffffffffff\n        /* \"#utility.yul\":1039:1049   */\n      dup3\n        /* \"#utility.yul\":1036:1070   */\n      gt\n        /* \"#utility.yul\":1033:1095   */\n      or\n        /* \"#utility.yul\":1030:1118   */\n      iszero\n      tag_103\n      jumpi\n        /* \"#utility.yul\":1098:1116   */\n      tag_104\n      tag_50\n      jump\t// in\n    tag_104:\n        /* \"#utility.yul\":1030:1118   */\n    tag_103:\n        /* \"#utility.yul\":1138:1148   */\n      dup1\n        /* \"#utility.yul\":1134:1136   */\n      0x40\n        /* \"#utility.yul\":1127:1149   */\n      mstore\n        /* \"#utility.yul\":917:1155   */\n      pop\n        /* \"#utility.yul\":874:1155   */\n      pop\n      pop\n      jump\t// out\n        /* \"#utility.yul\":1161:1290   */\n    tag_52:\n        /* \"#utility.yul\":1195:1201   */\n      0x00\n        /* \"#utility.yul\":1222:1242   */\n      tag_106\n      tag_44\n      jump\t// in\n    tag_106:\n        /* \"#utility.yul\":1212:1242   */\n      swap1\n      pop\n        /* \"#utility.yul\":1251:1284   */\n      tag_107\n        /* \"#utility.yul\":1279:1283   */\n      dup3\n        /* \"#utility.yul\":1271:1277   */\n      dup3\n        /* \"#utility.yul\":1251:1284   */\n      tag_51\n      jump\t// in\n    tag_107:\n        /* \"#utility.yul\":1161:1290   */\n      swap2\n      swap1\n      pop\n      jump\t// out\n        /* \"#utility.yul\":1296:1604   */\n    tag_53:\n        /* \"#utility.yul\":1358:1362   */\n      0x00\n        /* \"#utility.yul\":1448:1466   */\n      0xffffffffffffffff\n        /* \"#utility.yul\":1440:1446   */\n      dup3\n        /* \"#utility.yul\":1437:1467   */\n      gt\n        /* \"#utility.yul\":1434:1490   */\n      iszero\n      tag_109\n      jumpi\n        /* \"#utility.yul\":1470:1488   */\n      tag_110\n      tag_50\n      jump\t// in\n    tag_110:\n        /* \"#utility.yul\":1434:1490   */\n    tag_109:\n        /* \"#utility.yul\":1508:1537   */\n      tag_111\n        /* \"#utility.yul\":1530:1536   */\n      dup3\n        /* \"#utility.yul\":1508:1537   */\n      tag_49\n      jump\t// in\n    tag_111:\n        /* \"#utility.yul\":1500:1537   */\n      swap1\n      pop\n        /* \"#utility.yul\":1592:1596   */\n      0x20\n        /* \"#utility.yul\":1586:1590   */\n      dup2\n        /* \"#utility.yul\":1582:1597   */\n      add\n        /* \"#utility.yul\":1574:1597   */\n      swap1\n      pop\n        /* \"#utility.yul\":1296:1604   */\n      swap2\n      swap1\n      pop\n      jump\t// out\n        /* \"#utility.yul\":1610:1758   */\n    tag_54:\n        /* \"#utility.yul\":1708:1714   */\n      dup3\n        /* \"#utility.yul\":1703:1706   */\n      dup2\n        /* \"#utility.yul\":1698:1701   */\n      dup4\n        /* \"#utility.yul\":1685:1715   */\n      calldatacopy\n        /* \"#utility.yul\":1749:1750   */\n      0x00\n        /* \"#utility.yul\":1740:1746   */\n      dup4\n        /* \"#utility.yul\":1735:1738   */\n      dup4\n        /* \"#utility.yul\":1731:1747   */\n      add\n        /* \"#utility.yul\":1724:1751   */\n      mstore\n        /* \"#utility.yul\":1610:1758   */\n      pop\n      pop\n      pop\n      jump\t// out\n        /* \"#utility.yul\":1764:2189   */\n    tag_55:\n        /* \"#utility.yul\":1842:1847   */\n      0x00\n        /* \"#utility.yul\":1867:1933   */\n      tag_114\n        /* \"#utility.yul\":1883:1932   */\n      tag_115\n        /* \"#utility.yul\":1925:1931   */\n      dup5\n        /* \"#utility.yul\":1883:1932   */\n      tag_53\n      jump\t// in\n    tag_115:\n        /* \"#utility.yul\":1867:1933   */\n      tag_52\n      jump\t// in\n    tag_114:\n        /* \"#utility.yul\":1858:1933   */\n      swap1\n      pop\n        /* \"#utility.yul\":1956:1962   */\n      dup3\n        /* \"#utility.yul\":1949:1954   */\n      dup2\n        /* \"#utility.yul\":1942:1963   */\n      mstore\n        /* \"#utility.yul\":1994:1998   */\n      0x20\n        /* \"#utility.yul\":1987:1992   */\n      dup2\n        /* \"#utility.yul\":1983:1999   */\n      add\n        /* \"#utility.yul\":2032:2035   */\n      dup5\n        /* \"#utility.yul\":2023:2029   */\n      dup5\n        /* \"#utility.yul\":2018:2021   */\n      dup5\n        /* \"#utility.yul\":2014:2030   */\n      add\n        /* \"#utility.yul\":2011:2036   */\n      gt\n        /* \"#utility.yul\":2008:2120   */\n      iszero\n      tag_116\n      jumpi\n        /* \"#utility.yul\":2039:2118   */\n      tag_117\n      tag_48\n      jump\t// in\n    tag_117:\n        /* \"#utility.yul\":2008:2120   */\n    tag_116:\n        /* \"#utility.yul\":2129:2183   */\n      tag_118\n        /* \"#utility.yul\":2176:2182   */\n      dup5\n        /* \"#utility.yul\":2171:2174   */\n      dup3\n        /* \"#utility.yul\":2166:2169   */\n      dup6\n        /* \"#utility.yul\":2129:2183   */\n      tag_54\n      jump\t// in\n    tag_118:\n        /* \"#utility.yul\":1848:2189   */\n      pop\n        /* \"#utility.yul\":1764:2189   */\n      swap4\n      swap3\n      pop\n      pop\n      pop\n      jump\t// out\n        /* \"#utility.yul\":2209:2549   */\n    tag_56:\n        /* \"#utility.yul\":2265:2270   */\n      0x00\n        /* \"#utility.yul\":2314:2317   */\n      dup3\n        /* \"#utility.yul\":2307:2311   */\n      0x1f\n        /* \"#utility.yul\":2299:2305   */\n      dup4\n        /* \"#utility.yul\":2295:2312   */\n      add\n        /* \"#utility.yul\":2291:2318   */\n      slt\n        /* \"#utility.yul\":2281:2403   */\n      tag_120\n      jumpi\n        /* \"#utility.yul\":2322:2401   */\n      tag_121\n      tag_47\n      jump\t// in\n    tag_121:\n        /* \"#utility.yul\":2281:2403   */\n    tag_120:\n        /* \"#utility.yul\":2439:2445   */\n      dup2\n        /* \"#utility.yul\":2426:2446   */\n      calldataload\n        /* \"#utility.yul\":2464:2543   */\n      tag_122\n        /* \"#utility.yul\":2539:2542   */\n      dup5\n        /* \"#utility.yul\":2531:2537   */\n      dup3\n        /* \"#utility.yul\":2524:2528   */\n      0x20\n        /* \"#utility.yul\":2516:2522   */\n      dup7\n        /* \"#utility.yul\":2512:2529   */\n      add\n        /* \"#utility.yul\":2464:2543   */\n      tag_55\n      jump\t// in\n    tag_122:\n        /* \"#utility.yul\":2455:2543   */\n      swap2\n      pop\n        /* \"#utility.yul\":2271:2549   */\n      pop\n        /* \"#utility.yul\":2209:2549   */\n      swap3\n      swap2\n      pop\n      pop\n      jump\t// out\n        /* \"#utility.yul\":2555:2876   */\n    tag_57:\n        /* \"#utility.yul\":2642:2646   */\n      0x00\n        /* \"#utility.yul\":2732:2750   */\n      0xffffffffffffffff\n        /* \"#utility.yul\":2724:2730   */\n      dup3\n        /* \"#utility.yul\":2721:2751   */\n      gt\n        /* \"#utility.yul\":2718:2774   */\n      iszero\n      tag_124\n      jumpi\n        /* \"#utility.yul\":2754:2772   */\n      tag_125\n      tag_50\n      jump\t// in\n    tag_125:\n        /* \"#utility.yul\":2718:2774   */\n    tag_124:\n        /* \"#utility.yul\":2804:2808   */\n      0x20\n        /* \"#utility.yul\":2796:2802   */\n      dup3\n        /* \"#utility.yul\":2792:2809   */\n      mul\n        /* \"#utility.yul\":2784:2809   */\n      swap1\n      pop\n        /* \"#utility.yul\":2864:2868   */\n      0x20\n        /* \"#utility.yul\":2858:2862   */\n      dup2\n        /* \"#utility.yul\":2854:2869   */\n      add\n        /* \"#utility.yul\":2846:2869   */\n      swap1\n      pop\n        /* \"#utility.yul\":2555:2876   */\n      swap2\n      swap1\n      pop\n      jump\t// out\n        /* \"#utility.yul\":2882:2999   */\n    tag_58:\n        /* \"#utility.yul\":2991:2992   */\n      0x00\n        /* \"#utility.yul\":2988:2989   */\n      dup1\n        /* \"#utility.yul\":2981:2993   */\n      revert\n        /* \"#utility.yul\":3021:3966   */\n    tag_59:\n        /* \"#utility.yul\":3127:3132   */\n      0x00\n        /* \"#utility.yul\":3152:3243   */\n      tag_128\n        /* \"#utility.yul\":3168:3242   */\n      tag_129\n        /* \"#utility.yul\":3235:3241   */\n      dup5\n        /* \"#utility.yul\":3168:3242   */\n      tag_57\n      jump\t// in\n    tag_129:\n        /* \"#utility.yul\":3152:3243   */\n      tag_52\n      jump\t// in\n    tag_128:\n        /* \"#utility.yul\":3143:3243   */\n      swap1\n      pop\n        /* \"#utility.yul\":3263:3268   */\n      dup1\n        /* \"#utility.yul\":3292:3298   */\n      dup4\n        /* \"#utility.yul\":3285:3290   */\n      dup3\n        /* \"#utility.yul\":3278:3299   */\n      mstore\n        /* \"#utility.yul\":3326:3330   */\n      0x20\n        /* \"#utility.yul\":3319:3324   */\n      dup3\n        /* \"#utility.yul\":3315:3331   */\n      add\n        /* \"#utility.yul\":3308:3331   */\n      swap1\n      pop\n        /* \"#utility.yul\":3379:3383   */\n      0x20\n        /* \"#utility.yul\":3371:3377   */\n      dup5\n        /* \"#utility.yul\":3367:3384   */\n      mul\n        /* \"#utility.yul\":3359:3365   */\n      dup4\n        /* \"#utility.yul\":3355:3385   */\n      add\n        /* \"#utility.yul\":3408:3411   */\n      dup6\n        /* \"#utility.yul\":3400:3406   */\n      dup2\n        /* \"#utility.yul\":3397:3412   */\n      gt\n        /* \"#utility.yul\":3394:3516   */\n      iszero\n      tag_130\n      jumpi\n        /* \"#utility.yul\":3427:3506   */\n      tag_131\n      tag_58\n      jump\t// in\n    tag_131:\n        /* \"#utility.yul\":3394:3516   */\n    tag_130:\n        /* \"#utility.yul\":3542:3548   */\n      dup4\n        /* \"#utility.yul\":3525:3960   */\n    tag_132:\n        /* \"#utility.yul\":3559:3565   */\n      dup2\n        /* \"#utility.yul\":3554:3557   */\n      dup2\n        /* \"#utility.yul\":3551:3566   */\n      lt\n        /* \"#utility.yul\":3525:3960   */\n      iszero\n      tag_134\n      jumpi\n        /* \"#utility.yul\":3648:3651   */\n      dup1\n        /* \"#utility.yul\":3635:3652   */\n      calldataload\n        /* \"#utility.yul\":3684:3702   */\n      0xffffffffffffffff\n        /* \"#utility.yul\":3671:3682   */\n      dup2\n        /* \"#utility.yul\":3668:3703   */\n      gt\n        /* \"#utility.yul\":3665:3787   */\n      iszero\n      tag_135\n      jumpi\n        /* \"#utility.yul\":3706:3785   */\n      tag_136\n      tag_47\n      jump\t// in\n    tag_136:\n        /* \"#utility.yul\":3665:3787   */\n    tag_135:\n        /* \"#utility.yul\":3830:3841   */\n      dup1\n        /* \"#utility.yul\":3822:3828   */\n      dup7\n        /* \"#utility.yul\":3818:3842   */\n      add\n        /* \"#utility.yul\":3868:3915   */\n      tag_137\n        /* \"#utility.yul\":3911:3914   */\n      dup10\n        /* \"#utility.yul\":3899:3909   */\n      dup3\n        /* \"#utility.yul\":3868:3915   */\n      tag_56\n      jump\t// in\n    tag_137:\n        /* \"#utility.yul\":3863:3866   */\n      dup6\n        /* \"#utility.yul\":3856:3916   */\n      mstore\n        /* \"#utility.yul\":3945:3949   */\n      0x20\n        /* \"#utility.yul\":3940:3943   */\n      dup6\n        /* \"#utility.yul\":3936:3950   */\n      add\n        /* \"#utility.yul\":3929:3950   */\n      swap5\n      pop\n        /* \"#utility.yul\":3601:3960   */\n      pop\n      pop\n        /* \"#utility.yul\":3585:3589   */\n      0x20\n        /* \"#utility.yul\":3580:3583   */\n      dup2\n        /* \"#utility.yul\":3576:3590   */\n      add\n        /* \"#utility.yul\":3569:3590   */\n      swap1\n      pop\n        /* \"#utility.yul\":3525:3960   */\n      jump(tag_132)\n    tag_134:\n        /* \"#utility.yul\":3529:3550   */\n      pop\n        /* \"#utility.yul\":3133:3966   */\n      pop\n      pop\n        /* \"#utility.yul\":3021:3966   */\n      swap4\n      swap3\n      pop\n      pop\n      pop\n      jump\t// out\n        /* \"#utility.yul\":3988:4378   */\n    tag_60:\n        /* \"#utility.yul\":4069:4074   */\n      0x00\n        /* \"#utility.yul\":4118:4121   */\n      dup3\n        /* \"#utility.yul\":4111:4115   */\n      0x1f\n        /* \"#utility.yul\":4103:4109   */\n      dup4\n        /* \"#utility.yul\":4099:4116   */\n      add\n        /* \"#utility.yul\":4095:4122   */\n      slt\n        /* \"#utility.yul\":4085:4207   */\n      tag_139\n      jumpi\n        /* \"#utility.yul\":4126:4205   */\n      tag_140\n      tag_47\n      jump\t// in\n    tag_140:\n        /* \"#utility.yul\":4085:4207   */\n    tag_139:\n        /* \"#utility.yul\":4243:4249   */\n      dup2\n        /* \"#utility.yul\":4230:4250   */\n      calldataload\n        /* \"#utility.yul\":4268:4372   */\n      tag_141\n        /* \"#utility.yul\":4368:4371   */\n      dup5\n        /* \"#utility.yul\":4360:4366   */\n      dup3\n        /* \"#utility.yul\":4353:4357   */\n      0x20\n        /* \"#utility.yul\":4345:4351   */\n      dup7\n        /* \"#utility.yul\":4341:4358   */\n      add\n        /* \"#utility.yul\":4268:4372   */\n      tag_59\n      jump\t// in\n    tag_141:\n        /* \"#utility.yul\":4259:4372   */\n      swap2\n      pop\n        /* \"#utility.yul\":4075:4378   */\n      pop\n        /* \"#utility.yul\":3988:4378   */\n      swap3\n      swap2\n      pop\n      pop\n      jump\t// out\n        /* \"#utility.yul\":4384:5268   */\n    tag_7:\n        /* \"#utility.yul\":4497:4503   */\n      0x00\n        /* \"#utility.yul\":4505:4511   */\n      dup1\n        /* \"#utility.yul\":4554:4556   */\n      0x40\n        /* \"#utility.yul\":4542:4551   */\n      dup4\n        /* \"#utility.yul\":4533:4540   */\n      dup6\n        /* \"#utility.yul\":4529:4552   */\n      sub\n        /* \"#utility.yul\":4525:4557   */\n      slt\n        /* \"#utility.yul\":4522:4641   */\n      iszero\n      tag_143\n      jumpi\n        /* \"#utility.yul\":4560:4639   */\n      tag_144\n      tag_45\n      jump\t// in\n    tag_144:\n        /* \"#utility.yul\":4522:4641   */\n    tag_143:\n        /* \"#utility.yul\":4708:4709   */\n      0x00\n        /* \"#utility.yul\":4697:4706   */\n      dup4\n        /* \"#utility.yul\":4693:4710   */\n      add\n        /* \"#utility.yul\":4680:4711   */\n      calldataload\n        /* \"#utility.yul\":4738:4756   */\n      0xffffffffffffffff\n        /* \"#utility.yul\":4730:4736   */\n      dup2\n        /* \"#utility.yul\":4727:4757   */\n      gt\n        /* \"#utility.yul\":4724:4841   */\n      iszero\n      tag_145\n      jumpi\n        /* \"#utility.yul\":4760:4839   */\n      tag_146\n      tag_46\n      jump\t// in\n    tag_146:\n        /* \"#utility.yul\":4724:4841   */\n    tag_145:\n        /* \"#utility.yul\":4865:4928   */\n      tag_147\n        /* \"#utility.yul\":4920:4927   */\n      dup6\n        /* \"#utility.yul\":4911:4917   */\n      dup3\n        /* \"#utility.yul\":4900:4909   */\n      dup7\n        /* \"#utility.yul\":4896:4918   */\n      add\n        /* \"#utility.yul\":4865:4928   */\n      tag_56\n      jump\t// in\n    tag_147:\n        /* \"#utility.yul\":4855:4928   */\n      swap3\n      pop\n        /* \"#utility.yul\":4651:4938   */\n      pop\n        /* \"#utility.yul\":5005:5007   */\n      0x20\n        /* \"#utility.yul\":4994:5003   */\n      dup4\n        /* \"#utility.yul\":4990:5008   */\n      add\n        /* \"#utility.yul\":4977:5009   */\n      calldataload\n        /* \"#utility.yul\":5036:5054   */\n      0xffffffffffffffff\n        /* \"#utility.yul\":5028:5034   */\n      dup2\n        /* \"#utility.yul\":5025:5055   */\n      gt\n        /* \"#utility.yul\":5022:5139   */\n      iszero\n      tag_148\n      jumpi\n        /* \"#utility.yul\":5058:5137   */\n      tag_149\n      tag_46\n      jump\t// in\n    tag_149:\n        /* \"#utility.yul\":5022:5139   */\n    tag_148:\n        /* \"#utility.yul\":5163:5251   */\n      tag_150\n        /* \"#utility.yul\":5243:5250   */\n      dup6\n        /* \"#utility.yul\":5234:5240   */\n      dup3\n        /* \"#utility.yul\":5223:5232   */\n      dup7\n        /* \"#utility.yul\":5219:5241   */\n      add\n        /* \"#utility.yul\":5163:5251   */\n      tag_60\n      jump\t// in\n    tag_150:\n        /* \"#utility.yul\":5153:5251   */\n      swap2\n      pop\n        /* \"#utility.yul\":4948:5261   */\n      pop\n        /* \"#utility.yul\":4384:5268   */\n      swap3\n      pop\n      swap3\n      swap1\n      pop\n      jump\t// out\n        /* \"#utility.yul\":5274:5783   */\n    tag_11:\n        /* \"#utility.yul\":5343:5349   */\n      0x00\n        /* \"#utility.yul\":5392:5394   */\n      0x20\n        /* \"#utility.yul\":5380:5389   */\n      dup3\n        /* \"#utility.yul\":5371:5378   */\n      dup5\n        /* \"#utility.yul\":5367:5390   */\n      sub\n        /* \"#utility.yul\":5363:5395   */\n      slt\n        /* \"#utility.yul\":5360:5479   */\n      iszero\n      tag_152\n      jumpi\n        /* \"#utility.yul\":5398:5477   */\n      tag_153\n      tag_45\n      jump\t// in\n    tag_153:\n        /* \"#utility.yul\":5360:5479   */\n    tag_152:\n        /* \"#utility.yul\":5546:5547   */\n      0x00\n        /* \"#utility.yul\":5535:5544   */\n      dup3\n        /* \"#utility.yul\":5531:5548   */\n      add\n        /* \"#utility.yul\":5518:5549   */\n      calldataload\n        /* \"#utility.yul\":5576:5594   */\n      0xffffffffffffffff\n        /* \"#utility.yul\":5568:5574   */\n      dup2\n        /* \"#utility.yul\":5565:5595   */\n      gt\n        /* \"#utility.yul\":5562:5679   */\n      iszero\n      tag_154\n      jumpi\n        /* \"#utility.yul\":5598:5677   */\n      tag_155\n      tag_46\n      jump\t// in\n    tag_155:\n        /* \"#utility.yul\":5562:5679   */\n    tag_154:\n        /* \"#utility.yul\":5703:5766   */\n      tag_156\n        /* \"#utility.yul\":5758:5765   */\n      dup5\n        /* \"#utility.yul\":5749:5755   */\n      dup3\n        /* \"#utility.yul\":5738:5747   */\n      dup6\n        /* \"#utility.yul\":5734:5756   */\n      add\n        /* \"#utility.yul\":5703:5766   */\n      tag_56\n      jump\t// in\n    tag_156:\n        /* \"#utility.yul\":5693:5766   */\n      swap2\n      pop\n        /* \"#utility.yul\":5489:5776   */\n      pop\n        /* \"#utility.yul\":5274:5783   */\n      swap3\n      swap2\n      pop\n      pop\n      jump\t// out\n        /* \"#utility.yul\":5789:5888   */\n    tag_61:\n        /* \"#utility.yul\":5841:5847   */\n      0x00\n        /* \"#utility.yul\":5875:5880   */\n      dup2\n        /* \"#utility.yul\":5869:5881   */\n      mload\n        /* \"#utility.yul\":5859:5881   */\n      swap1\n      pop\n        /* \"#utility.yul\":5789:5888   */\n      swap2\n      swap1\n      pop\n      jump\t// out\n        /* \"#utility.yul\":5894:6063   */\n    tag_62:\n        /* \"#utility.yul\":5978:5989   */\n      0x00\n        /* \"#utility.yul\":6012:6018   */\n      dup3\n        /* \"#utility.yul\":6007:6010   */\n      dup3\n        /* \"#utility.yul\":6000:6019   */\n      mstore\n        /* \"#utility.yul\":6052:6056   */\n      0x20\n        /* \"#utility.yul\":6047:6050   */\n      dup3\n        /* \"#utility.yul\":6043:6057   */\n      add\n        /* \"#utility.yul\":6028:6057   */\n      swap1\n      pop\n        /* \"#utility.yul\":5894:6063   */\n      swap3\n      swap2\n      pop\n      pop\n      jump\t// out\n        /* \"#utility.yul\":6069:6208   */\n    tag_63:\n        /* \"#utility.yul\":6158:6164   */\n      dup3\n        /* \"#utility.yul\":6153:6156   */\n      dup2\n        /* \"#utility.yul\":6148:6151   */\n      dup4\n        /* \"#utility.yul\":6142:6165   */\n      mcopy\n        /* \"#utility.yul\":6199:6200   */\n      0x00\n        /* \"#utility.yul\":6190:6196   */\n      dup4\n        /* \"#utility.yul\":6185:6188   */\n      dup4\n        /* \"#utility.yul\":6181:6197   */\n      add\n        /* \"#utility.yul\":6174:6201   */\n      mstore\n        /* \"#utility.yul\":6069:6208   */\n      pop\n      pop\n      pop\n      jump\t// out\n        /* \"#utility.yul\":6214:6591   */\n    tag_64:\n        /* \"#utility.yul\":6302:6305   */\n      0x00\n        /* \"#utility.yul\":6330:6369   */\n      tag_161\n        /* \"#utility.yul\":6363:6368   */\n      dup3\n        /* \"#utility.yul\":6330:6369   */\n      tag_61\n      jump\t// in\n    tag_161:\n        /* \"#utility.yul\":6385:6456   */\n      tag_162\n        /* \"#utility.yul\":6449:6455   */\n      dup2\n        /* \"#utility.yul\":6444:6447   */\n      dup6\n        /* \"#utility.yul\":6385:6456   */\n      tag_62\n      jump\t// in\n    tag_162:\n        /* \"#utility.yul\":6378:6456   */\n      swap4\n      pop\n        /* \"#utility.yul\":6465:6530   */\n      tag_163\n        /* \"#utility.yul\":6523:6529   */\n      dup2\n        /* \"#utility.yul\":6518:6521   */\n      dup6\n        /* \"#utility.yul\":6511:6515   */\n      0x20\n        /* \"#utility.yul\":6504:6509   */\n      dup7\n        /* \"#utility.yul\":6500:6516   */\n      add\n        /* \"#utility.yul\":6465:6530   */\n      tag_63\n      jump\t// in\n    tag_163:\n        /* \"#utility.yul\":6555:6584   */\n      tag_164\n        /* \"#utility.yul\":6577:6583   */\n      dup2\n        /* \"#utility.yul\":6555:6584   */\n      tag_49\n      jump\t// in\n    tag_164:\n        /* \"#utility.yul\":6550:6553   */\n      dup5\n        /* \"#utility.yul\":6546:6585   */\n      add\n        /* \"#utility.yul\":6539:6585   */\n      swap2\n      pop\n        /* \"#utility.yul\":6306:6591   */\n      pop\n        /* \"#utility.yul\":6214:6591   */\n      swap3\n      swap2\n      pop\n      pop\n      jump\t// out\n        /* \"#utility.yul\":6597:6721   */\n    tag_65:\n        /* \"#utility.yul\":6674:6680   */\n      0x00\n        /* \"#utility.yul\":6708:6713   */\n      dup2\n        /* \"#utility.yul\":6702:6714   */\n      mload\n        /* \"#utility.yul\":6692:6714   */\n      swap1\n      pop\n        /* \"#utility.yul\":6597:6721   */\n      swap2\n      swap1\n      pop\n      jump\t// out\n        /* \"#utility.yul\":6727:6921   */\n    tag_66:\n        /* \"#utility.yul\":6836:6847   */\n      0x00\n        /* \"#utility.yul\":6870:6876   */\n      dup3\n        /* \"#utility.yul\":6865:6868   */\n      dup3\n        /* \"#utility.yul\":6858:6877   */\n      mstore\n        /* \"#utility.yul\":6910:6914   */\n      0x20\n        /* \"#utility.yul\":6905:6908   */\n      dup3\n        /* \"#utility.yul\":6901:6915   */\n      add\n        /* \"#utility.yul\":6886:6915   */\n      swap1\n      pop\n        /* \"#utility.yul\":6727:6921   */\n      swap3\n      swap2\n      pop\n      pop\n      jump\t// out\n        /* \"#utility.yul\":6927:7069   */\n    tag_67:\n        /* \"#utility.yul\":7004:7008   */\n      0x00\n        /* \"#utility.yul\":7027:7030   */\n      dup2\n        /* \"#utility.yul\":7019:7030   */\n      swap1\n      pop\n        /* \"#utility.yul\":7057:7061   */\n      0x20\n        /* \"#utility.yul\":7052:7055   */\n      dup3\n        /* \"#utility.yul\":7048:7062   */\n      add\n        /* \"#utility.yul\":7040:7062   */\n      swap1\n      pop\n        /* \"#utility.yul\":6927:7069   */\n      swap2\n      swap1\n      pop\n      jump\t// out\n        /* \"#utility.yul\":7075:7234   */\n    tag_68:\n        /* \"#utility.yul\":7149:7160   */\n      0x00\n        /* \"#utility.yul\":7183:7189   */\n      dup3\n        /* \"#utility.yul\":7178:7181   */\n      dup3\n        /* \"#utility.yul\":7171:7190   */\n      mstore\n        /* \"#utility.yul\":7223:7227   */\n      0x20\n        /* \"#utility.yul\":7218:7221   */\n      dup3\n        /* \"#utility.yul\":7214:7228   */\n      add\n        /* \"#utility.yul\":7199:7228   */\n      swap1\n      pop\n        /* \"#utility.yul\":7075:7234   */\n      swap3\n      swap2\n      pop\n      pop\n      jump\t// out\n        /* \"#utility.yul\":7240:7597   */\n    tag_69:\n        /* \"#utility.yul\":7318:7321   */\n      0x00\n        /* \"#utility.yul\":7346:7385   */\n      tag_170\n        /* \"#utility.yul\":7379:7384   */\n      dup3\n        /* \"#utility.yul\":7346:7385   */\n      tag_61\n      jump\t// in\n    tag_170:\n        /* \"#utility.yul\":7401:7462   */\n      tag_171\n        /* \"#utility.yul\":7455:7461   */\n      dup2\n        /* \"#utility.yul\":7450:7453   */\n      dup6\n        /* \"#utility.yul\":7401:7462   */\n      tag_68\n      jump\t// in\n    tag_171:\n        /* \"#utility.yul\":7394:7462   */\n      swap4\n      pop\n        /* \"#utility.yul\":7471:7536   */\n      tag_172\n        /* \"#utility.yul\":7529:7535   */\n      dup2\n        /* \"#utility.yul\":7524:7527   */\n      dup6\n        /* \"#utility.yul\":7517:7521   */\n      0x20\n        /* \"#utility.yul\":7510:7515   */\n      dup7\n        /* \"#utility.yul\":7506:7522   */\n      add\n        /* \"#utility.yul\":7471:7536   */\n      tag_63\n      jump\t// in\n    tag_172:\n        /* \"#utility.yul\":7561:7590   */\n      tag_173\n        /* \"#utility.yul\":7583:7589   */\n      dup2\n        /* \"#utility.yul\":7561:7590   */\n      tag_49\n      jump\t// in\n    tag_173:\n        /* \"#utility.yul\":7556:7559   */\n      dup5\n        /* \"#utility.yul\":7552:7591   */\n      add\n        /* \"#utility.yul\":7545:7591   */\n      swap2\n      pop\n        /* \"#utility.yul\":7322:7597   */\n      pop\n        /* \"#utility.yul\":7240:7597   */\n      swap3\n      swap2\n      pop\n      pop\n      jump\t// out\n        /* \"#utility.yul\":7603:7799   */\n    tag_70:\n        /* \"#utility.yul\":7692:7702   */\n      0x00\n        /* \"#utility.yul\":7727:7793   */\n      tag_175\n        /* \"#utility.yul\":7789:7792   */\n      dup4\n        /* \"#utility.yul\":7781:7787   */\n      dup4\n        /* \"#utility.yul\":7727:7793   */\n      tag_69\n      jump\t// in\n    tag_175:\n        /* \"#utility.yul\":7713:7793   */\n      swap1\n      pop\n        /* \"#utility.yul\":7603:7799   */\n      swap3\n      swap2\n      pop\n      pop\n      jump\t// out\n        /* \"#utility.yul\":7805:7928   */\n    tag_71:\n        /* \"#utility.yul\":7885:7889   */\n      0x00\n        /* \"#utility.yul\":7917:7921   */\n      0x20\n        /* \"#utility.yul\":7912:7915   */\n      dup3\n        /* \"#utility.yul\":7908:7922   */\n      add\n        /* \"#utility.yul\":7900:7922   */\n      swap1\n      pop\n        /* \"#utility.yul\":7805:7928   */\n      swap2\n      swap1\n      pop\n      jump\t// out\n        /* \"#utility.yul\":7962:8953   */\n    tag_72:\n        /* \"#utility.yul\":8101:8104   */\n      0x00\n        /* \"#utility.yul\":8130:8194   */\n      tag_178\n        /* \"#utility.yul\":8188:8193   */\n      dup3\n        /* \"#utility.yul\":8130:8194   */\n      tag_65\n      jump\t// in\n    tag_178:\n        /* \"#utility.yul\":8210:8306   */\n      tag_179\n        /* \"#utility.yul\":8299:8305   */\n      dup2\n        /* \"#utility.yul\":8294:8297   */\n      dup6\n        /* \"#utility.yul\":8210:8306   */\n      tag_66\n      jump\t// in\n    tag_179:\n        /* \"#utility.yul\":8203:8306   */\n      swap4\n      pop\n        /* \"#utility.yul\":8332:8335   */\n      dup4\n        /* \"#utility.yul\":8377:8381   */\n      0x20\n        /* \"#utility.yul\":8369:8375   */\n      dup3\n        /* \"#utility.yul\":8365:8382   */\n      mul\n        /* \"#utility.yul\":8360:8363   */\n      dup6\n        /* \"#utility.yul\":8356:8383   */\n      add\n        /* \"#utility.yul\":8407:8473   */\n      tag_180\n        /* \"#utility.yul\":8467:8472   */\n      dup6\n        /* \"#utility.yul\":8407:8473   */\n      tag_67\n      jump\t// in\n    tag_180:\n        /* \"#utility.yul\":8496:8503   */\n      dup1\n        /* \"#utility.yul\":8527:8528   */\n      0x00\n        /* \"#utility.yul\":8512:8908   */\n    tag_181:\n        /* \"#utility.yul\":8537:8543   */\n      dup6\n        /* \"#utility.yul\":8534:8535   */\n      dup2\n        /* \"#utility.yul\":8531:8544   */\n      lt\n        /* \"#utility.yul\":8512:8908   */\n      iszero\n      tag_183\n      jumpi\n        /* \"#utility.yul\":8608:8617   */\n      dup5\n        /* \"#utility.yul\":8602:8606   */\n      dup5\n        /* \"#utility.yul\":8598:8618   */\n      sub\n        /* \"#utility.yul\":8593:8596   */\n      dup10\n        /* \"#utility.yul\":8586:8619   */\n      mstore\n        /* \"#utility.yul\":8659:8665   */\n      dup2\n        /* \"#utility.yul\":8653:8666   */\n      mload\n        /* \"#utility.yul\":8687:8771   */\n      tag_184\n        /* \"#utility.yul\":8766:8770   */\n      dup6\n        /* \"#utility.yul\":8751:8764   */\n      dup3\n        /* \"#utility.yul\":8687:8771   */\n      tag_70\n      jump\t// in\n    tag_184:\n        /* \"#utility.yul\":8679:8771   */\n      swap5\n      pop\n        /* \"#utility.yul\":8794:8864   */\n      tag_185\n        /* \"#utility.yul\":8857:8863   */\n      dup4\n        /* \"#utility.yul\":8794:8864   */\n      tag_71\n      jump\t// in\n    tag_185:\n        /* \"#utility.yul\":8784:8864   */\n      swap3\n      pop\n        /* \"#utility.yul\":8893:8897   */\n      0x20\n        /* \"#utility.yul\":8888:8891   */\n      dup11\n        /* \"#utility.yul\":8884:8898   */\n      add\n        /* \"#utility.yul\":8877:8898   */\n      swap10\n      pop\n        /* \"#utility.yul\":8572:8908   */\n      pop\n        /* \"#utility.yul\":8559:8560   */\n      0x01\n        /* \"#utility.yul\":8556:8557   */\n      dup2\n        /* \"#utility.yul\":8552:8561   */\n      add\n        /* \"#utility.yul\":8547:8561   */\n      swap1\n      pop\n        /* \"#utility.yul\":8512:8908   */\n      jump(tag_181)\n    tag_183:\n        /* \"#utility.yul\":8516:8530   */\n      pop\n        /* \"#utility.yul\":8924:8928   */\n      dup3\n        /* \"#utility.yul\":8917:8928   */\n      swap8\n      pop\n        /* \"#utility.yul\":8944:8947   */\n      dup8\n        /* \"#utility.yul\":8937:8947   */\n      swap6\n      pop\n        /* \"#utility.yul\":8106:8953   */\n      pop\n      pop\n      pop\n      pop\n      pop\n        /* \"#utility.yul\":7962:8953   */\n      swap3\n      swap2\n      pop\n      pop\n      jump\t// out\n        /* \"#utility.yul\":8959:9036   */\n    tag_73:\n        /* \"#utility.yul\":8996:9003   */\n      0x00\n        /* \"#utility.yul\":9025:9030   */\n      dup2\n        /* \"#utility.yul\":9014:9030   */\n      swap1\n      pop\n        /* \"#utility.yul\":8959:9036   */\n      swap2\n      swap1\n      pop\n      jump\t// out\n        /* \"#utility.yul\":9042:9160   */\n    tag_74:\n        /* \"#utility.yul\":9129:9153   */\n      tag_188\n        /* \"#utility.yul\":9147:9152   */\n      dup2\n        /* \"#utility.yul\":9129:9153   */\n      tag_73\n      jump\t// in\n    tag_188:\n        /* \"#utility.yul\":9124:9127   */\n      dup3\n        /* \"#utility.yul\":9117:9154   */\n      mstore\n        /* \"#utility.yul\":9042:9160   */\n      pop\n      pop\n      jump\t// out\n        /* \"#utility.yul\":9166:10001   */\n    tag_14:\n        /* \"#utility.yul\":9433:9437   */\n      0x00\n        /* \"#utility.yul\":9471:9474   */\n      0x80\n        /* \"#utility.yul\":9460:9469   */\n      dup3\n        /* \"#utility.yul\":9456:9475   */\n      add\n        /* \"#utility.yul\":9448:9475   */\n      swap1\n      pop\n        /* \"#utility.yul\":9521:9530   */\n      dup2\n        /* \"#utility.yul\":9515:9519   */\n      dup2\n        /* \"#utility.yul\":9511:9531   */\n      sub\n        /* \"#utility.yul\":9507:9508   */\n      0x00\n        /* \"#utility.yul\":9496:9505   */\n      dup4\n        /* \"#utility.yul\":9492:9509   */\n      add\n        /* \"#utility.yul\":9485:9532   */\n      mstore\n        /* \"#utility.yul\":9549:9627   */\n      tag_190\n        /* \"#utility.yul\":9622:9626   */\n      dup2\n        /* \"#utility.yul\":9613:9619   */\n      dup8\n        /* \"#utility.yul\":9549:9627   */\n      tag_64\n      jump\t// in\n    tag_190:\n        /* \"#utility.yul\":9541:9627   */\n      swap1\n      pop\n        /* \"#utility.yul\":9674:9683   */\n      dup2\n        /* \"#utility.yul\":9668:9672   */\n      dup2\n        /* \"#utility.yul\":9664:9684   */\n      sub\n        /* \"#utility.yul\":9659:9661   */\n      0x20\n        /* \"#utility.yul\":9648:9657   */\n      dup4\n        /* \"#utility.yul\":9644:9662   */\n      add\n        /* \"#utility.yul\":9637:9685   */\n      mstore\n        /* \"#utility.yul\":9702:9830   */\n      tag_191\n        /* \"#utility.yul\":9825:9829   */\n      dup2\n        /* \"#utility.yul\":9816:9822   */\n      dup7\n        /* \"#utility.yul\":9702:9830   */\n      tag_72\n      jump\t// in\n    tag_191:\n        /* \"#utility.yul\":9694:9830   */\n      swap1\n      pop\n        /* \"#utility.yul\":9840:9912   */\n      tag_192\n        /* \"#utility.yul\":9908:9910   */\n      0x40\n        /* \"#utility.yul\":9897:9906   */\n      dup4\n        /* \"#utility.yul\":9893:9911   */\n      add\n        /* \"#utility.yul\":9884:9890   */\n      dup6\n        /* \"#utility.yul\":9840:9912   */\n      tag_74\n      jump\t// in\n    tag_192:\n        /* \"#utility.yul\":9922:9994   */\n      tag_193\n        /* \"#utility.yul\":9990:9992   */\n      0x60\n        /* \"#utility.yul\":9979:9988   */\n      dup4\n        /* \"#utility.yul\":9975:9993   */\n      add\n        /* \"#utility.yul\":9966:9972   */\n      dup5\n        /* \"#utility.yul\":9922:9994   */\n      tag_74\n      jump\t// in\n    tag_193:\n        /* \"#utility.yul\":9166:10001   */\n      swap6\n      swap5\n      pop\n      pop\n      pop\n      pop\n      pop\n      jump\t// out\n        /* \"#utility.yul\":10007:10155   */\n    tag_75:\n        /* \"#utility.yul\":10109:10120   */\n      0x00\n        /* \"#utility.yul\":10146:10149   */\n      dup2\n        /* \"#utility.yul\":10131:10149   */\n      swap1\n      pop\n        /* \"#utility.yul\":10007:10155   */\n      swap3\n      swap2\n      pop\n      pop\n      jump\t// out\n        /* \"#utility.yul\":10161:10551   */\n    tag_76:\n        /* \"#utility.yul\":10267:10270   */\n      0x00\n        /* \"#utility.yul\":10295:10334   */\n      tag_196\n        /* \"#utility.yul\":10328:10333   */\n      dup3\n        /* \"#utility.yul\":10295:10334   */\n      tag_61\n      jump\t// in\n    tag_196:\n        /* \"#utility.yul\":10350:10439   */\n      tag_197\n        /* \"#utility.yul\":10432:10438   */\n      dup2\n        /* \"#utility.yul\":10427:10430   */\n      dup6\n        /* \"#utility.yul\":10350:10439   */\n      tag_75\n      jump\t// in\n    tag_197:\n        /* \"#utility.yul\":10343:10439   */\n      swap4\n      pop\n        /* \"#utility.yul\":10448:10513   */\n      tag_198\n        /* \"#utility.yul\":10506:10512   */\n      dup2\n        /* \"#utility.yul\":10501:10504   */\n      dup6\n        /* \"#utility.yul\":10494:10498   */\n      0x20\n        /* \"#utility.yul\":10487:10492   */\n      dup7\n        /* \"#utility.yul\":10483:10499   */\n      add\n        /* \"#utility.yul\":10448:10513   */\n      tag_63\n      jump\t// in\n    tag_198:\n        /* \"#utility.yul\":10538:10544   */\n      dup1\n        /* \"#utility.yul\":10533:10536   */\n      dup5\n        /* \"#utility.yul\":10529:10545   */\n      add\n        /* \"#utility.yul\":10522:10545   */\n      swap2\n      pop\n        /* \"#utility.yul\":10271:10551   */\n      pop\n        /* \"#utility.yul\":10161:10551   */\n      swap3\n      swap2\n      pop\n      pop\n      jump\t// out\n        /* \"#utility.yul\":10557:10832   */\n    tag_17:\n        /* \"#utility.yul\":10689:10692   */\n      0x00\n        /* \"#utility.yul\":10711:10806   */\n      tag_200\n        /* \"#utility.yul\":10802:10805   */\n      dup3\n        /* \"#utility.yul\":10793:10799   */\n      dup5\n        /* \"#utility.yul\":10711:10806   */\n      tag_76\n      jump\t// in\n    tag_200:\n        /* \"#utility.yul\":10704:10806   */\n      swap2\n      pop\n        /* \"#utility.yul\":10823:10826   */\n      dup2\n        /* \"#utility.yul\":10816:10826   */\n      swap1\n      pop\n        /* \"#utility.yul\":10557:10832   */\n      swap3\n      swap2\n      pop\n      pop\n      jump\t// out\n        /* \"#utility.yul\":10838:11018   */\n    tag_77:\n        /* \"#utility.yul\":10886:10963   */\n      0x4e487b7100000000000000000000000000000000000000000000000000000000\n        /* \"#utility.yul\":10883:10884   */\n      0x00\n        /* \"#utility.yul\":10876:10964   */\n      mstore\n        /* \"#utility.yul\":10983:10987   */\n      0x22\n        /* \"#utility.yul\":10980:10981   */\n      0x04\n        /* \"#utility.yul\":10973:10988   */\n      mstore\n        /* \"#utility.yul\":11007:11011   */\n      0x24\n        /* \"#utility.yul\":11004:11005   */\n      0x00\n        /* \"#utility.yul\":10997:11012   */\n      revert\n        /* \"#utility.yul\":11024:11344   */\n    tag_31:\n        /* \"#utility.yul\":11068:11074   */\n      0x00\n        /* \"#utility.yul\":11105:11106   */\n      0x02\n        /* \"#utility.yul\":11099:11103   */\n      dup3\n        /* \"#utility.yul\":11095:11107   */\n      div\n        /* \"#utility.yul\":11085:11107   */\n      swap1\n      pop\n        /* \"#utility.yul\":11152:11153   */\n      0x01\n        /* \"#utility.yul\":11146:11150   */\n      dup3\n        /* \"#utility.yul\":11142:11154   */\n      and\n        /* \"#utility.yul\":11173:11191   */\n      dup1\n        /* \"#utility.yul\":11163:11244   */\n      tag_203\n      jumpi\n        /* \"#utility.yul\":11229:11233   */\n      0x7f\n        /* \"#utility.yul\":11221:11227   */\n      dup3\n        /* \"#utility.yul\":11217:11234   */\n      and\n        /* \"#utility.yul\":11207:11234   */\n      swap2\n      pop\n        /* \"#utility.yul\":11163:11244   */\n    tag_203:\n        /* \"#utility.yul\":11291:11293   */\n      0x20\n        /* \"#utility.yul\":11283:11289   */\n      dup3\n        /* \"#utility.yul\":11280:11294   */\n      lt\n        /* \"#utility.yul\":11260:11278   */\n      dup2\n        /* \"#utility.yul\":11257:11295   */\n      sub\n        /* \"#utility.yul\":11254:11338   */\n      tag_204\n      jumpi\n        /* \"#utility.yul\":11310:11328   */\n      tag_205\n      tag_77\n      jump\t// in\n    tag_205:\n        /* \"#utility.yul\":11254:11338   */\n    tag_204:\n        /* \"#utility.yul\":11075:11344   */\n      pop\n        /* \"#utility.yul\":11024:11344   */\n      swap2\n      swap1\n      pop\n      jump\t// out\n        /* \"#utility.yul\":11350:11491   */\n    tag_78:\n        /* \"#utility.yul\":11399:11403   */\n      0x00\n        /* \"#utility.yul\":11422:11425   */\n      dup2\n        /* \"#utility.yul\":11414:11425   */\n      swap1\n      pop\n        /* \"#utility.yul\":11445:11448   */\n      dup2\n        /* \"#utility.yul\":11442:11443   */\n      0x00\n        /* \"#utility.yul\":11435:11449   */\n      mstore\n        /* \"#utility.yul\":11479:11483   */\n      0x20\n        /* \"#utility.yul\":11476:11477   */\n      0x00\n        /* \"#utility.yul\":11466:11484   */\n      keccak256\n        /* \"#utility.yul\":11458:11484   */\n      swap1\n      pop\n        /* \"#utility.yul\":11350:11491   */\n      swap2\n      swap1\n      pop\n      jump\t// out\n        /* \"#utility.yul\":11497:11590   */\n    tag_79:\n        /* \"#utility.yul\":11534:11540   */\n      0x00\n        /* \"#utility.yul\":11581:11583   */\n      0x20\n        /* \"#utility.yul\":11576:11578   */\n      0x1f\n        /* \"#utility.yul\":11569:11574   */\n      dup4\n        /* \"#utility.yul\":11565:11579   */\n      add\n        /* \"#utility.yul\":11561:11584   */\n      div\n        /* \"#utility.yul\":11551:11584   */\n      swap1\n      pop\n        /* \"#utility.yul\":11497:11590   */\n      swap2\n      swap1\n      pop\n      jump\t// out\n        /* \"#utility.yul\":11596:11703   */\n    tag_80:\n        /* \"#utility.yul\":11640:11648   */\n      0x00\n        /* \"#utility.yul\":11690:11695   */\n      dup3\n        /* \"#utility.yul\":11684:11688   */\n      dup3\n        /* \"#utility.yul\":11680:11696   */\n      shl\n        /* \"#utility.yul\":11659:11696   */\n      swap1\n      pop\n        /* \"#utility.yul\":11596:11703   */\n      swap3\n      swap2\n      pop\n      pop\n      jump\t// out\n        /* \"#utility.yul\":11709:12102   */\n    tag_81:\n        /* \"#utility.yul\":11778:11784   */\n      0x00\n        /* \"#utility.yul\":11828:11829   */\n      0x08\n        /* \"#utility.yul\":11816:11826   */\n      dup4\n        /* \"#utility.yul\":11812:11830   */\n      mul\n        /* \"#utility.yul\":11851:11948   */\n      tag_210\n        /* \"#utility.yul\":11881:11947   */\n      0xffffffffffffffffffffffffffffffffffffffffffffffffffffffffffffffff\n        /* \"#utility.yul\":11870:11879   */\n      dup3\n        /* \"#utility.yul\":11851:11948   */\n      tag_80\n      jump\t// in\n    tag_210:\n        /* \"#utility.yul\":11969:12008   */\n      tag_211\n        /* \"#utility.yul\":11999:12007   */\n      dup7\n        /* \"#utility.yul\":11988:11997   */\n      dup4\n        /* \"#utility.yul\":11969:12008   */\n      tag_80\n      jump\t// in\n    tag_211:\n        /* \"#utility.yul\":11957:12008   */\n      swap6\n      pop\n        /* \"#utility.yul\":12041:12045   */\n      dup1\n        /* \"#utility.yul\":12037:12046   */\n      not\n        /* \"#utility.yul\":12030:12035   */\n      dup5\n        /* \"#utility.yul\":12026:12047   */\n      and\n        /* \"#utility.yul\":12017:12047   */\n      swap4\n      pop\n        /* \"#utility.yul\":12090:12094   */\n      dup1\n        /* \"#utility.yul\":12080:12088   */\n      dup7\n        /* \"#utility.yul\":12076:12095   */\n      and\n        /* \"#utility.yul\":12069:12074   */\n      dup5\n        /* \"#utility.yul\":12066:12096   */\n      or\n        /* \"#utility.yul\":12056:12096   */\n      swap3\n      pop\n        /* \"#utility.yul\":11785:12102   */\n      pop\n      pop\n        /* \"#utility.yul\":11709:12102   */\n      swap4\n      swap3\n      pop\n      pop\n      pop\n      jump\t// out\n        /* \"#utility.yul\":12108:12168   */\n    tag_82:\n        /* \"#utility.yul\":12136:12139   */\n      0x00\n        /* \"#utility.yul\":12157:12162   */\n      dup2\n        /* \"#utility.yul\":12150:12162   */\n      swap1\n      pop\n        /* \"#utility.yul\":12108:12168   */\n      swap2\n      swap1\n      pop\n      jump\t// out\n        /* \"#utility.yul\":12174:12316   */\n    tag_83:\n        /* \"#utility.yul\":12224:12233   */\n      0x00\n        /* \"#utility.yul\":12257:12310   */\n      tag_214\n        /* \"#utility.yul\":12275:12309   */\n      tag_215\n        /* \"#utility.yul\":12284:12308   */\n      tag_216\n        /* \"#utility.yul\":12302:12307   */\n      dup5\n        /* \"#utility.yul\":12284:12308   */\n      tag_73\n      jump\t// in\n    tag_216:\n        /* \"#utility.yul\":12275:12309   */\n      tag_82\n      jump\t// in\n    tag_215:\n        /* \"#utility.yul\":12257:12310   */\n      tag_73\n      jump\t// in\n    tag_214:\n        /* \"#utility.yul\":12244:12310   */\n      swap1\n      pop\n        /* \"#utility.yul\":12174:12316   */\n      swap2\n      swap1\n      pop\n      jump\t// out\n        /* \"#utility.yul\":12322:12397   */\n    tag_84:\n        /* \"#utility.yul\":12365:12368   */\n      0x00\n        /* \"#utility.yul\":12386:12391   */\n      dup2\n        /* \"#utility.yul\":12379:12391   */\n      swap1\n      pop\n        /* \"#utility.yul\":12322:12397   */\n      swap2\n      swap1\n      pop\n      jump\t// out\n        /* \"#utility.yul\":12403:12672   */\n    tag_85:\n        /* \"#utility.yul\":12513:12552   */\n      tag_219\n        /* \"#utility.yul\":12544:12551   */\n      dup4\n        /* \"#utility.yul\":12513:12552   */\n      tag_83\n      jump\t// in\n    tag_219:\n        /* \"#utility.yul\":12574:12665   */\n      tag_220\n        /* \"#utility.yul\":12623:12664   */\n      tag_221\n        /* \"#utility.yul\":12647:12663   */\n      dup3\n        /* \"#utility.yul\":12623:12664   */\n      tag_84\n      jump\t// in\n    tag_221:\n        /* \"#utility.yul\":12615:12621   */\n      dup5\n        /* \"#utility.yul\":12608:12612   */\n      dup5\n        /* \"#utility.yul\":12602:12613   */\n      sload\n        /* \"#utility.yul\":12574:12665   */\n      tag_81\n      jump\t// in\n    tag_220:\n        /* \"#utility.yul\":12568:12572   */\n      dup3\n        /* \"#utility.yul\":12561:12666   */\n      sstore\n        /* \"#utility.yul\":12479:12672   */\n      pop\n        /* \"#utility.yul\":12403:12672   */\n      pop\n      pop\n      pop\n      jump\t// out\n        /* \"#utility.yul\":12678:12751   */\n    tag_86:\n        /* \"#utility.yul\":12723:12726   */\n      0x00\n        /* \"#utility.yul\":12678:12751   */\n      swap1\n      jump\t// out\n        /* \"#utility.yul\":12757:12946   */\n    tag_87:\n        /* \"#utility.yul\":12834:12866   */\n      tag_224\n      tag_86\n      jump\t// in\n    tag_224:\n        /* \"#utility.yul\":12875:12940   */\n      tag_225\n        /* \"#utility.yul\":12933:12939   */\n      dup2\n        /* \"#utility.yul\":12925:12931   */\n      dup5\n        /* \"#utility.yul\":12919:12923   */\n      dup5\n        /* \"#utility.yul\":12875:12940   */\n      tag_85\n      jump\t// in\n    tag_225:\n        /* \"#utility.yul\":12810:12946   */\n      pop\n        /* \"#utility.yul\":12757:12946   */\n      pop\n      pop\n      jump\t// out\n        /* \"#utility.yul\":12952:13138   */\n    tag_88:\n        /* \"#utility.yul\":13012:13132   */\n    tag_227:\n        /* \"#utility.yul\":13029:13032   */\n      dup2\n        /* \"#utility.yul\":13022:13027   */\n      dup2\n        /* \"#utility.yul\":13019:13033   */\n      lt\n        /* \"#utility.yul\":13012:13132   */\n      iszero\n      tag_229\n      jumpi\n        /* \"#utility.yul\":13083:13122   */\n      tag_230\n        /* \"#utility.yul\":13120:13121   */\n      0x00\n        /* \"#utility.yul\":13113:13118   */\n      dup3\n        /* \"#utility.yul\":13083:13122   */\n      tag_87\n      jump\t// in\n    tag_230:\n        /* \"#utility.yul\":13056:13057   */\n      0x01\n        /* \"#utility.yul\":13049:13054   */\n      dup2\n        /* \"#utility.yul\":13045:13058   */\n      add\n        /* \"#utility.yul\":13036:13058   */\n      swap1\n      pop\n        /* \"#utility.yul\":13012:13132   */\n      jump(tag_227)\n    tag_229:\n        /* \"#utility.yul\":12952:13138   */\n      pop\n      pop\n      jump\t// out\n        /* \"#utility.yul\":13144:13687   */\n    tag_89:\n        /* \"#utility.yul\":13245:13247   */\n      0x1f\n        /* \"#utility.yul\":13240:13243   */\n      dup3\n        /* \"#utility.yul\":13237:13248   */\n      gt\n        /* \"#utility.yul\":13234:13680   */\n      iszero\n      tag_232\n      jumpi\n        /* \"#utility.yul\":13279:13317   */\n      tag_233\n        /* \"#utility.yul\":13311:13316   */\n      dup2\n        /* \"#utility.yul\":13279:13317   */\n      tag_78\n      jump\t// in\n    tag_233:\n        /* \"#utility.yul\":13363:13392   */\n      tag_234\n        /* \"#utility.yul\":13381:13391   */\n      dup5\n        /* \"#utility.yul\":13363:13392   */\n      tag_79\n      jump\t// in\n    tag_234:\n        /* \"#utility.yul\":13353:13361   */\n      dup2\n        /* \"#utility.yul\":13349:13393   */\n      add\n        /* \"#utility.yul\":13546:13548   */\n      0x20\n        /* \"#utility.yul\":13534:13544   */\n      dup6\n        /* \"#utility.yul\":13531:13549   */\n      lt\n        /* \"#utility.yul\":13528:13577   */\n      iszero\n      tag_235\n      jumpi\n        /* \"#utility.yul\":13567:13575   */\n      dup2\n        /* \"#utility.yul\":13552:13575   */\n      swap1\n      pop\n        /* \"#utility.yul\":13528:13577   */\n    tag_235:\n        /* \"#utility.yul\":13590:13670   */\n      tag_236\n        /* \"#utility.yul\":13646:13668   */\n      tag_237\n        /* \"#utility.yul\":13664:13667   */\n      dup6\n        /* \"#utility.yul\":13646:13668   */\n      tag_79\n      jump\t// in\n    tag_237:\n        /* \"#utility.yul\":13636:13644   */\n      dup4\n        /* \"#utility.yul\":13632:13669   */\n      add\n        /* \"#utility.yul\":13619:13630   */\n      dup3\n        /* \"#utility.yul\":13590:13670   */\n      tag_88\n      jump\t// in\n    tag_236:\n        /* \"#utility.yul\":13249:13680   */\n      pop\n      pop\n        /* \"#utility.yul\":13234:13680   */\n    tag_232:\n        /* \"#utility.yul\":13144:13687   */\n      pop\n      pop\n      pop\n      jump\t// out\n        /* \"#utility.yul\":13693:13810   */\n    tag_90:\n        /* \"#utility.yul\":13747:13755   */\n      0x00\n        /* \"#utility.yul\":13797:13802   */\n      dup3\n        /* \"#utility.yul\":13791:13795   */\n      dup3\n        /* \"#utility.yul\":13787:13803   */\n      shr\n        /* \"#utility.yul\":13766:13803   */\n      swap1\n      pop\n        /* \"#utility.yul\":13693:13810   */\n      swap3\n      swap2\n      pop\n      pop\n      jump\t// out\n        /* \"#utility.yul\":13816:13985   */\n    tag_91:\n        /* \"#utility.yul\":13860:13866   */\n      0x00\n        /* \"#utility.yul\":13893:13944   */\n      tag_240\n        /* \"#utility.yul\":13941:13942   */\n      0x00\n        /* \"#utility.yul\":13937:13943   */\n      not\n        /* \"#utility.yul\":13929:13934   */\n      dup5\n        /* \"#utility.yul\":13926:13927   */\n      0x08\n        /* \"#utility.yul\":13922:13935   */\n      mul\n        /* \"#utility.yul\":13893:13944   */\n      tag_90\n      jump\t// in\n    tag_240:\n        /* \"#utility.yul\":13889:13945   */\n      not\n        /* \"#utility.yul\":13974:13978   */\n      dup1\n        /* \"#utility.yul\":13968:13972   */\n      dup4\n        /* \"#utility.yul\":13964:13979   */\n      and\n        /* \"#utility.yul\":13954:13979   */\n      swap2\n      pop\n        /* \"#utility.yul\":13867:13985   */\n      pop\n        /* \"#utility.yul\":13816:13985   */\n      swap3\n      swap2\n      pop\n      pop\n      jump\t// out\n        /* \"#utility.yul\":13990:14285   */\n    tag_92:\n        /* \"#utility.yul\":14066:14070   */\n      0x00\n        /* \"#utility.yul\":14212:14241   */\n      tag_242\n        /* \"#utility.yul\":14237:14240   */\n      dup4\n        /* \"#utility.yul\":14231:14235   */\n      dup4\n        /* \"#utility.yul\":14212:14241   */\n      tag_91\n      jump\t// in\n    tag_242:\n        /* \"#utility.yul\":14204:14241   */\n      swap2\n      pop\n        /* \"#utility.yul\":14274:14277   */\n      dup3\n        /* \"#utility.yul\":14271:14272   */\n      0x02\n        /* \"#utility.yul\":14267:14278   */\n      mul\n        /* \"#utility.yul\":14261:14265   */\n      dup3\n        /* \"#utility.yul\":14258:14279   */\n      or\n        /* \"#utility.yul\":14250:14279   */\n      swap1\n      pop\n        /* \"#utility.yul\":13990:14285   */\n      swap3\n      swap2\n      pop\n      pop\n      jump\t// out\n        /* \"#utility.yul\":14290:15685   */\n    tag_19:\n        /* \"#utility.yul\":14407:14444   */\n      tag_244\n        /* \"#utility.yul\":14440:14443   */\n      dup3\n        /* \"#utility.yul\":14407:14444   */\n      tag_61\n      jump\t// in\n    tag_244:\n        /* \"#utility.yul\":14509:14527   */\n      0xffffffffffffffff\n        /* \"#utility.yul\":14501:14507   */\n      dup2\n        /* \"#utility.yul\":14498:14528   */\n      gt\n        /* \"#utility.yul\":14495:14551   */\n      iszero\n      tag_245\n      jumpi\n        /* \"#utility.yul\":14531:14549   */\n      tag_246\n      tag_50\n      jump\t// in\n    tag_246:\n        /* \"#utility.yul\":14495:14551   */\n    tag_245:\n        /* \"#utility.yul\":14575:14613   */\n      tag_247\n        /* \"#utility.yul\":14607:14611   */\n      dup3\n        /* \"#utility.yul\":14601:14612   */\n      sload\n        /* \"#utility.yul\":14575:14613   */\n      tag_31\n      jump\t// in\n    tag_247:\n        /* \"#utility.yul\":14660:14727   */\n      tag_248\n        /* \"#utility.yul\":14720:14726   */\n      dup3\n        /* \"#utility.yul\":14712:14718   */\n      dup3\n        /* \"#utility.yul\":14706:14710   */\n      dup6\n        /* \"#utility.yul\":14660:14727   */\n      tag_89\n      jump\t// in\n    tag_248:\n        /* \"#utility.yul\":14754:14755   */\n      0x00\n        /* \"#utility.yul\":14778:14782   */\n      0x20\n        /* \"#utility.yul\":14765:14782   */\n      swap1\n      pop\n        /* \"#utility.yul\":14810:14812   */\n      0x1f\n        /* \"#utility.yul\":14802:14808   */\n      dup4\n        /* \"#utility.yul\":14799:14813   */\n      gt\n        /* \"#utility.yul\":14827:14828   */\n      0x01\n        /* \"#utility.yul\":14822:15440   */\n      dup2\n      eq\n      tag_250\n      jumpi\n        /* \"#utility.yul\":15484:15485   */\n      0x00\n        /* \"#utility.yul\":15501:15507   */\n      dup5\n        /* \"#utility.yul\":15498:15575   */\n      iszero\n      tag_251\n      jumpi\n        /* \"#utility.yul\":15550:15559   */\n      dup3\n        /* \"#utility.yul\":15545:15548   */\n      dup8\n        /* \"#utility.yul\":15541:15560   */\n      add\n        /* \"#utility.yul\":15535:15561   */\n      mload\n        /* \"#utility.yul\":15526:15561   */\n      swap1\n      pop\n        /* \"#utility.yul\":15498:15575   */\n    tag_251:\n        /* \"#utility.yul\":15601:15668   */\n      tag_252\n        /* \"#utility.yul\":15661:15667   */\n      dup6\n        /* \"#utility.yul\":15654:15659   */\n      dup3\n        /* \"#utility.yul\":15601:15668   */\n      tag_92\n      jump\t// in\n    tag_252:\n        /* \"#utility.yul\":15595:15599   */\n      dup7\n        /* \"#utility.yul\":15588:15669   */\n      sstore\n        /* \"#utility.yul\":15457:15679   */\n      pop\n        /* \"#utility.yul\":14792:15679   */\n      jump(tag_249)\n        /* \"#utility.yul\":14822:15440   */\n    tag_250:\n        /* \"#utility.yul\":14874:14878   */\n      0x1f\n        /* \"#utility.yul\":14870:14879   */\n      not\n        /* \"#utility.yul\":14862:14868   */\n      dup5\n        /* \"#utility.yul\":14858:14880   */\n      and\n        /* \"#utility.yul\":14908:14945   */\n      tag_253\n        /* \"#utility.yul\":14940:14944   */\n      dup7\n        /* \"#utility.yul\":14908:14945   */\n      tag_78\n      jump\t// in\n    tag_253:\n        /* \"#utility.yul\":14967:14968   */\n      0x00\n        /* \"#utility.yul\":14981:15189   */\n    tag_254:\n        /* \"#utility.yul\":14995:15002   */\n      dup3\n        /* \"#utility.yul\":14992:14993   */\n      dup2\n        /* \"#utility.yul\":14989:15003   */\n      lt\n        /* \"#utility.yul\":14981:15189   */\n      iszero\n      tag_256\n      jumpi\n        /* \"#utility.yul\":15074:15083   */\n      dup5\n        /* \"#utility.yul\":15069:15072   */\n      dup10\n        /* \"#utility.yul\":15065:15084   */\n      add\n        /* \"#utility.yul\":15059:15085   */\n      mload\n        /* \"#utility.yul\":15051:15057   */\n      dup3\n        /* \"#utility.yul\":15044:15086   */\n      sstore\n        /* \"#utility.yul\":15125:15126   */\n      0x01\n        /* \"#utility.yul\":15117:15123   */\n      dup3\n        /* \"#utility.yul\":15113:15127   */\n      add\n        /* \"#utility.yul\":15103:15127   */\n      swap2\n      pop\n        /* \"#utility.yul\":15172:15174   */\n      0x20\n        /* \"#utility.yul\":15161:15170   */\n      dup6\n        /* \"#utility.yul\":15157:15175   */\n      add\n        /* \"#utility.yul\":15144:15175   */\n      swap5\n      pop\n        /* \"#utility.yul\":15018:15022   */\n      0x20\n        /* \"#utility.yul\":15015:15016   */\n      dup2\n        /* \"#utility.yul\":15011:15023   */\n      add\n        /* \"#utility.yul\":15006:15023   */\n      swap1\n      pop\n        /* \"#utility.yul\":14981:15189   */\n      jump(tag_254)\n    tag_256:\n        /* \"#utility.yul\":15217:15223   */\n      dup7\n        /* \"#utility.yul\":15208:15215   */\n      dup4\n        /* \"#utility.yul\":15205:15224   */\n      lt\n        /* \"#utility.yul\":15202:15381   */\n      iszero\n      tag_257\n      jumpi\n        /* \"#utility.yul\":15275:15284   */\n      dup5\n        /* \"#utility.yul\":15270:15273   */\n      dup10\n        /* \"#utility.yul\":15266:15285   */\n      add\n        /* \"#utility.yul\":15260:15286   */\n      mload\n        /* \"#utility.yul\":15318:15366   */\n      tag_258\n        /* \"#utility.yul\":15360:15364   */\n      0x1f\n        /* \"#utility.yul\":15352:15358   */\n      dup10\n        /* \"#utility.yul\":15348:15365   */\n      and\n        /* \"#utility.yul\":15337:15346   */\n      dup3\n        /* \"#utility.yul\":15318:15366   */\n      tag_91\n      jump\t// in\n    tag_258:\n        /* \"#utility.yul\":15310:15316   */\n      dup4\n        /* \"#utility.yul\":15303:15367   */\n      sstore\n        /* \"#utility.yul\":15225:15381   */\n      pop\n        /* \"#utility.yul\":15202:15381   */\n    tag_257:\n        /* \"#utility.yul\":15427:15428   */\n      0x01\n        /* \"#utility.yul\":15423:15424   */\n      0x02\n        /* \"#utility.yul\":15415:15421   */\n      dup9\n        /* \"#utility.yul\":15411:15425   */\n      mul\n        /* \"#utility.yul\":15407:15429   */\n      add\n        /* \"#utility.yul\":15401:15405   */\n      dup9\n        /* \"#utility.yul\":15394:15430   */\n      sstore\n        /* \"#utility.yul\":14829:15440   */\n      pop\n      pop\n      pop\n        /* \"#utility.yul\":14792:15679   */\n    tag_249:\n      pop\n        /* \"#utility.yul\":14382:15685   */\n      pop\n      pop\n      pop\n        /* \"#utility.yul\":14290:15685   */\n      pop\n      pop\n      jump\t// out\n        /* \"#utility.yul\":15691:15871   */\n    tag_25:\n        /* \"#utility.yul\":15739:15816   */\n      0x4e487b7100000000000000000000000000000000000000000000000000000000\n        /* \"#utility.yul\":15736:15737   */\n      0x00\n        /* \"#utility.yul\":15729:15817   */\n      mstore\n        /* \"#utility.yul\":15836:15840   */\n      0x32\n        /* \"#utility.yul\":15833:15834   */\n      0x04\n        /* \"#utility.yul\":15826:15841   */\n      mstore\n        /* \"#utility.yul\":15860:15864   */\n      0x24\n        /* \"#utility.yul\":15857:15858   */\n      0x00\n        /* \"#utility.yul\":15850:15865   */\n      revert\n\n    auxdata: 0xa2646970667358221220c415d88512a84a9b939ee55b40cd198aabe6eb0443ee552dafb4ab737ce221c164736f6c634300081a0033\n}\n",
				"bytecode": {
					"linkReferences": {},
					"object": "6080604052348015600e575f80fd5b50610b088061001c5f395ff3fe608060405234801561000f575f80fd5b5060043610610034575f3560e01c80637c59fdd814610038578063ae55c88814610054575b5f80fd5b610052600480360381019061004d9190610503565b610087565b005b61006e60048036038101906100699190610579565b610136565b60405161007e949392919061073b565b60405180910390f35b5f808360405161009791906107c6565b9081526020016040518091039020905082815f0190816100b791906109d6565b504281600201819055504381600301819055505f5b825181101561013057816001018382815181106100ec576100eb610aa5565b5b6020026020010151908060018154018082558091505060019003905f5260205f20015f90919091909150908161012291906109d6565b5080806001019150506100cc565b50505050565b6060805f805f808660405161014b91906107c6565b90815260200160405180910390209050805f01816001018260020154836003015483805461017890610809565b80601f01602080910402602001604051908101604052809291908181526020018280546101a490610809565b80156101ef5780601f106101c6576101008083540402835291602001916101ef565b820191905f5260205f20905b8154815290600101906020018083116101d257829003601f168201915b5050505050935082805480602002602001604051908101604052809291908181526020015f905b828210156102be578382905f5260205f2001805461023390610809565b80601f016020809104026020016040519081016040528092919081815260200182805461025f90610809565b80156102aa5780601f10610281576101008083540402835291602001916102aa565b820191905f5260205f20905b81548152906001019060200180831161028d57829003601f168201915b505050505081526020019060010190610216565b5050505092509450945094509450509193509193565b5f604051905090565b5f80fd5b5f80fd5b5f80fd5b5f80fd5b5f601f19601f8301169050919050565b7f4e487b71000000000000000000000000000000000000000000000000000000005f52604160045260245ffd5b610333826102ed565b810181811067ffffffffffffffff82111715610352576103516102fd565b5b80604052505050565b5f6103646102d4565b9050610370828261032a565b919050565b5f67ffffffffffffffff82111561038f5761038e6102fd565b5b610398826102ed565b9050602081019050919050565b828183375f83830152505050565b5f6103c56103c084610375565b61035b565b9050828152602081018484840111156103e1576103e06102e9565b5b6103ec8482856103a5565b509392505050565b5f82601f830112610408576104076102e5565b5b81356104188482602086016103b3565b91505092915050565b5f67ffffffffffffffff82111561043b5761043a6102fd565b5b602082029050602081019050919050565b5f80fd5b5f61046261045d84610421565b61035b565b905080838252602082019050602084028301858111156104855761048461044c565b5b835b818110156104cc57803567ffffffffffffffff8111156104aa576104a96102e5565b5b8086016104b789826103f4565b85526020850194505050602081019050610487565b5050509392505050565b5f82601f8301126104ea576104e96102e5565b5b81356104fa848260208601610450565b91505092915050565b5f8060408385031215610519576105186102dd565b5b5f83013567ffffffffffffffff811115610536576105356102e1565b5b610542858286016103f4565b925050602083013567ffffffffffffffff811115610563576105626102e1565b5b61056f858286016104d6565b9150509250929050565b5f6020828403121561058e5761058d6102dd565b5b5f82013567ffffffffffffffff8111156105ab576105aa6102e1565b5b6105b7848285016103f4565b91505092915050565b5f81519050919050565b5f82825260208201905092915050565b8281835e5f83830152505050565b5f6105f2826105c0565b6105fc81856105ca565b935061060c8185602086016105da565b610615816102ed565b840191505092915050565b5f81519050919050565b5f82825260208201905092915050565b5f819050602082019050919050565b5f82825260208201905092915050565b5f610663826105c0565b61066d8185610649565b935061067d8185602086016105da565b610686816102ed565b840191505092915050565b5f61069c8383610659565b905092915050565b5f602082019050919050565b5f6106ba82610620565b6106c4818561062a565b9350836020820285016106d68561063a565b805f5b8581101561071157848403895281516106f28582610691565b94506106fd836106a4565b925060208a019950506001810190506106d9565b50829750879550505050505092915050565b5f819050919050565b61073581610723565b82525050565b5f6080820190508181035f83015261075381876105e8565b9050818103602083015261076781866106b0565b9050610776604083018561072c565b610783606083018461072c565b95945050505050565b5f81905092915050565b5f6107a0826105c0565b6107aa818561078c565b93506107ba8185602086016105da565b80840191505092915050565b5f6107d18284610796565b915081905092915050565b7f4e487b71000000000000000000000000000000000000000000000000000000005f52602260045260245ffd5b5f600282049050600182168061082057607f821691505b602082108103610833576108326107dc565b5b50919050565b5f819050815f5260205f209050919050565b5f6020601f8301049050919050565b5f82821b905092915050565b5f600883026108957fffffffffffffffffffffffffffffffffffffffffffffffffffffffffffffffff8261085a565b61089f868361085a565b95508019841693508086168417925050509392505050565b5f819050919050565b5f6108da6108d56108d084610723565b6108b7565b610723565b9050919050565b5f819050919050565b6108f3836108c0565b6109076108ff826108e1565b848454610866565b825550505050565b5f90565b61091b61090f565b6109268184846108ea565b505050565b5b818110156109495761093e5f82610913565b60018101905061092c565b5050565b601f82111561098e5761095f81610839565b6109688461084b565b81016020851015610977578190505b61098b6109838561084b565b83018261092b565b50505b505050565b5f82821c905092915050565b5f6109ae5f1984600802610993565b1980831691505092915050565b5f6109c6838361099f565b9150826002028217905092915050565b6109df826105c0565b67ffffffffffffffff8111156109f8576109f76102fd565b5b610a028254610809565b610a0d82828561094d565b5f60209050601f831160018114610a3e575f8415610a2c578287015190505b610a3685826109bb565b865550610a9d565b601f198416610a4c86610839565b5f5b82811015610a7357848901518255600182019150602085019450602081019050610a4e565b86831015610a905784890151610a8c601f89168261099f565b8355505b6001600288020188555050505b505050505050565b7f4e487b71000000000000000000000000000000000000000000000000000000005f52603260045260245ffdfea2646970667358221220c415d88512a84a9b939ee55b40cd198aabe6eb0443ee552dafb4ab737ce221c164736f6c634300081a0033",
					"opcodes": "PUSH1 0x80 PUSH1 0x40 MSTORE CALLVALUE DUP1 ISZERO PUSH1 0xE JUMPI PUSH0 DUP1 REVERT JUMPDEST POP PUSH2 0xB08 DUP1 PUSH2 0x1C PUSH0 CODECOPY PUSH0 RETURN INVALID PUSH1 0x80 PUSH1 0x40 MSTORE CALLVALUE DUP1 ISZERO PUSH2 0xF JUMPI PUSH0 DUP1 REVERT JUMPDEST POP PUSH1 0x4 CALLDATASIZE LT PUSH2 0x34 JUMPI PUSH0 CALLDATALOAD PUSH1 0xE0 SHR DUP1 PUSH4 0x7C59FDD8 EQ PUSH2 0x38 JUMPI DUP1 PUSH4 0xAE55C888 EQ PUSH2 0x54 JUMPI JUMPDEST PUSH0 DUP1 REVERT JUMPDEST PUSH2 0x52 PUSH1 0x4 DUP1 CALLDATASIZE SUB DUP2 ADD SWAP1 PUSH2 0x4D SWAP2 SWAP1 PUSH2 0x503 JUMP JUMPDEST PUSH2 0x87 JUMP JUMPDEST STOP JUMPDEST PUSH2 0x6E PUSH1 0x4 DUP1 CALLDATASIZE SUB DUP2 ADD SWAP1 PUSH2 0x69 SWAP2 SWAP1 PUSH2 0x579 JUMP JUMPDEST PUSH2 0x136 JUMP JUMPDEST PUSH1 0x40 MLOAD PUSH2 0x7E SWAP5 SWAP4 SWAP3 SWAP2 SWAP1 PUSH2 0x73B JUMP JUMPDEST PUSH1 0x40 MLOAD DUP1 SWAP2 SUB SWAP1 RETURN JUMPDEST PUSH0 DUP1 DUP4 PUSH1 0x40 MLOAD PUSH2 0x97 SWAP2 SWAP1 PUSH2 0x7C6 JUMP JUMPDEST SWAP1 DUP2 MSTORE PUSH1 0x20 ADD PUSH1 0x40 MLOAD DUP1 SWAP2 SUB SWAP1 KECCAK256 SWAP1 POP DUP3 DUP2 PUSH0 ADD SWAP1 DUP2 PUSH2 0xB7 SWAP2 SWAP1 PUSH2 0x9D6 JUMP JUMPDEST POP TIMESTAMP DUP2 PUSH1 0x2 ADD DUP2 SWAP1 SSTORE POP NUMBER DUP2 PUSH1 0x3 ADD DUP2 SWAP1 SSTORE POP PUSH0 JUMPDEST DUP3 MLOAD DUP2 LT ISZERO PUSH2 0x130 JUMPI DUP2 PUSH1 0x1 ADD DUP4 DUP3 DUP2 MLOAD DUP2 LT PUSH2 0xEC JUMPI PUSH2 0xEB PUSH2 0xAA5 JUMP JUMPDEST JUMPDEST PUSH1 0x20 MUL PUSH1 0x20 ADD ADD MLOAD SWAP1 DUP1 PUSH1 0x1 DUP2 SLOAD ADD DUP1 DUP3 SSTORE DUP1 SWAP2 POP POP PUSH1 0x1 SWAP1 SUB SWAP1 PUSH0 MSTORE PUSH1 0x20 PUSH0 KECCAK256 ADD PUSH0 SWAP1 SWAP2 SWAP1 SWAP2 SWAP1 SWAP2 POP SWAP1 DUP2 PUSH2 0x122 SWAP2 SWAP1 PUSH2 0x9D6 JUMP JUMPDEST POP DUP1 DUP1 PUSH1 0x1 ADD SWAP2 POP POP PUSH2 0xCC JUMP JUMPDEST POP POP POP POP JUMP JUMPDEST PUSH1 0x60 DUP1 PUSH0 DUP1 PUSH0 DUP1 DUP7 PUSH1 0x40 MLOAD PUSH2 0x14B SWAP2 SWAP1 PUSH2 0x7C6 JUMP JUMPDEST SWAP1 DUP2 MSTORE PUSH1 0x20 ADD PUSH1 0x40 MLOAD DUP1 SWAP2 SUB SWAP1 KECCAK256 SWAP1 POP DUP1 PUSH0 ADD DUP2 PUSH1 0x1 ADD DUP3 PUSH1 0x2 ADD SLOAD DUP4 PUSH1 0x3 ADD SLOAD DUP4 DUP1 SLOAD PUSH2 0x178 SWAP1 PUSH2 0x809 JUMP JUMPDEST DUP1 PUSH1 0x1F ADD PUSH1 0x20 DUP1 SWAP2 DIV MUL PUSH1 0x20 ADD PUSH1 0x40 MLOAD SWAP1 DUP2 ADD PUSH1 0x40 MSTORE DUP1 SWAP3 SWAP2 SWAP1 DUP2 DUP2 MSTORE PUSH1 0x20 ADD DUP3 DUP1 SLOAD PUSH2 0x1A4 SWAP1 PUSH2 0x809 JUMP JUMPDEST DUP1 ISZERO PUSH2 0x1EF JUMPI DUP1 PUSH1 0x1F LT PUSH2 0x1C6 JUMPI PUSH2 0x100 DUP1 DUP4 SLOAD DIV MUL DUP4 MSTORE SWAP2 PUSH1 0x20 ADD SWAP2 PUSH2 0x1EF JUMP JUMPDEST DUP3 ADD SWAP2 SWAP1 PUSH0 MSTORE PUSH1 0x20 PUSH0 KECCAK256 SWAP1 JUMPDEST DUP2 SLOAD DUP2 MSTORE SWAP1 PUSH1 0x1 ADD SWAP1 PUSH1 0x20 ADD DUP1 DUP4 GT PUSH2 0x1D2 JUMPI DUP3 SWAP1 SUB PUSH1 0x1F AND DUP3 ADD SWAP2 JUMPDEST POP POP POP POP POP SWAP4 POP DUP3 DUP1 SLOAD DUP1 PUSH1 0x20 MUL PUSH1 0x20 ADD PUSH1 0x40 MLOAD SWAP1 DUP2 ADD PUSH1 0x40 MSTORE DUP1 SWAP3 SWAP2 SWAP1 DUP2 DUP2 MSTORE PUSH1 0x20 ADD PUSH0 SWAP1 JUMPDEST DUP3 DUP3 LT ISZERO PUSH2 0x2BE JUMPI DUP4 DUP3 SWAP1 PUSH0 MSTORE PUSH1 0x20 PUSH0 KECCAK256 ADD DUP1 SLOAD PUSH2 0x233 SWAP1 PUSH2 0x809 JUMP JUMPDEST DUP1 PUSH1 0x1F ADD PUSH1 0x20 DUP1 SWAP2 DIV MUL PUSH1 0x20 ADD PUSH1 0x40 MLOAD SWAP1 DUP2 ADD PUSH1 0x40 MSTORE DUP1 SWAP3 SWAP2 SWAP1 DUP2 DUP2 MSTORE PUSH1 0x20 ADD DUP3 DUP1 SLOAD PUSH2 0x25F SWAP1 PUSH2 0x809 JUMP JUMPDEST DUP1 ISZERO PUSH2 0x2AA JUMPI DUP1 PUSH1 0x1F LT PUSH2 0x281 JUMPI PUSH2 0x100 DUP1 DUP4 SLOAD DIV MUL DUP4 MSTORE SWAP2 PUSH1 0x20 ADD SWAP2 PUSH2 0x2AA JUMP JUMPDEST DUP3 ADD SWAP2 SWAP1 PUSH0 MSTORE PUSH1 0x20 PUSH0 KECCAK256 SWAP1 JUMPDEST DUP2 SLOAD DUP2 MSTORE SWAP1 PUSH1 0x1 ADD SWAP1 PUSH1 0x20 ADD DUP1 DUP4 GT PUSH2 0x28D JUMPI DUP3 SWAP1 SUB PUSH1 0x1F AND DUP3 ADD SWAP2 JUMPDEST POP POP POP POP POP DUP2 MSTORE PUSH1 0x20 ADD SWAP1 PUSH1 0x1 ADD SWAP1 PUSH2 0x216 JUMP JUMPDEST POP POP POP POP SWAP3 POP SWAP5 POP SWAP5 POP SWAP5 POP SWAP5 POP POP SWAP2 SWAP4 POP SWAP2 SWAP4 JUMP JUMPDEST PUSH0 PUSH1 0x40 MLOAD SWAP1 POP SWAP1 JUMP JUMPDEST PUSH0 DUP1 REVERT JUMPDEST PUSH0 DUP1 REVERT JUMPDEST PUSH0 DUP1 REVERT JUMPDEST PUSH0 DUP1 REVERT JUMPDEST PUSH0 PUSH1 0x1F NOT PUSH1 0x1F DUP4 ADD AND SWAP1 POP SWAP2 SWAP1 POP JUMP JUMPDEST PUSH32 0x4E487B7100000000000000000000000000000000000000000000000000000000 PUSH0 MSTORE PUSH1 0x41 PUSH1 0x4 MSTORE PUSH1 0x24 PUSH0 REVERT JUMPDEST PUSH2 0x333 DUP3 PUSH2 0x2ED JUMP JUMPDEST DUP2 ADD DUP2 DUP2 LT PUSH8 0xFFFFFFFFFFFFFFFF DUP3 GT OR ISZERO PUSH2 0x352 JUMPI PUSH2 0x351 PUSH2 0x2FD JUMP JUMPDEST JUMPDEST DUP1 PUSH1 0x40 MSTORE POP POP POP JUMP JUMPDEST PUSH0 PUSH2 0x364 PUSH2 0x2D4 JUMP JUMPDEST SWAP1 POP PUSH2 0x370 DUP3 DUP3 PUSH2 0x32A JUMP JUMPDEST SWAP2 SWAP1 POP JUMP JUMPDEST PUSH0 PUSH8 0xFFFFFFFFFFFFFFFF DUP3 GT ISZERO PUSH2 0x38F JUMPI PUSH2 0x38E PUSH2 0x2FD JUMP JUMPDEST JUMPDEST PUSH2 0x398 DUP3 PUSH2 0x2ED JUMP JUMPDEST SWAP1 POP PUSH1 0x20 DUP2 ADD SWAP1 POP SWAP2 SWAP1 POP JUMP JUMPDEST DUP3 DUP2 DUP4 CALLDATACOPY PUSH0 DUP4 DUP4 ADD MSTORE POP POP POP JUMP JUMPDEST PUSH0 PUSH2 0x3C5 PUSH2 0x3C0 DUP5 PUSH2 0x375 JUMP JUMPDEST PUSH2 0x35B JUMP JUMPDEST SWAP1 POP DUP3 DUP2 MSTORE PUSH1 0x20 DUP2 ADD DUP5 DUP5 DUP5 ADD GT ISZERO PUSH2 0x3E1 JUMPI PUSH2 0x3E0 PUSH2 0x2E9 JUMP JUMPDEST JUMPDEST PUSH2 0x3EC DUP5 DUP3 DUP6 PUSH2 0x3A5 JUMP JUMPDEST POP SWAP4 SWAP3 POP POP POP JUMP JUMPDEST PUSH0 DUP3 PUSH1 0x1F DUP4 ADD SLT PUSH2 0x408 JUMPI PUSH2 0x407 PUSH2 0x2E5 JUMP JUMPDEST JUMPDEST DUP2 CALLDATALOAD PUSH2 0x418 DUP5 DUP3 PUSH1 0x20 DUP7 ADD PUSH2 0x3B3 JUMP JUMPDEST SWAP2 POP POP SWAP3 SWAP2 POP POP JUMP JUMPDEST PUSH0 PUSH8 0xFFFFFFFFFFFFFFFF DUP3 GT ISZERO PUSH2 0x43B JUMPI PUSH2 0x43A PUSH2 0x2FD JUMP JUMPDEST JUMPDEST PUSH1 0x20 DUP3 MUL SWAP1 POP PUSH1 0x20 DUP2 ADD SWAP1 POP SWAP2 SWAP1 POP JUMP JUMPDEST PUSH0 DUP1 REVERT JUMPDEST PUSH0 PUSH2 0x462 PUSH2 0x45D DUP5 PUSH2 0x421 JUMP JUMPDEST PUSH2 0x35B JUMP JUMPDEST SWAP1 POP DUP1 DUP4 DUP3 MSTORE PUSH1 0x20 DUP3 ADD SWAP1 POP PUSH1 0x20 DUP5 MUL DUP4 ADD DUP6 DUP2 GT ISZERO PUSH2 0x485 JUMPI PUSH2 0x484 PUSH2 0x44C JUMP JUMPDEST JUMPDEST DUP4 JUMPDEST DUP2 DUP2 LT ISZERO PUSH2 0x4CC JUMPI DUP1 CALLDATALOAD PUSH8 0xFFFFFFFFFFFFFFFF DUP2 GT ISZERO PUSH2 0x4AA JUMPI PUSH2 0x4A9 PUSH2 0x2E5 JUMP JUMPDEST JUMPDEST DUP1 DUP7 ADD PUSH2 0x4B7 DUP10 DUP3 PUSH2 0x3F4 JUMP JUMPDEST DUP6 MSTORE PUSH1 0x20 DUP6 ADD SWAP5 POP POP POP PUSH1 0x20 DUP2 ADD SWAP1 POP PUSH2 0x487 JUMP JUMPDEST POP POP POP SWAP4 SWAP3 POP POP POP JUMP JUMPDEST PUSH0 DUP3 PUSH1 0x1F DUP4 ADD SLT PUSH2 0x4EA JUMPI PUSH2 0x4E9 PUSH2 0x2E5 JUMP JUMPDEST JUMPDEST DUP2 CALLDATALOAD PUSH2 0x4FA DUP5 DUP3 PUSH1 0x20 DUP7 ADD PUSH2 0x450 JUMP JUMPDEST SWAP2 POP POP SWAP3 SWAP2 POP POP JUMP JUMPDEST PUSH0 DUP1 PUSH1 0x40 DUP4 DUP6 SUB SLT ISZERO PUSH2 0x519 JUMPI PUSH2 0x518 PUSH2 0x2DD JUMP JUMPDEST JUMPDEST PUSH0 DUP4 ADD CALLDATALOAD PUSH8 0xFFFFFFFFFFFFFFFF DUP2 GT ISZERO PUSH2 0x536 JUMPI PUSH2 0x535 PUSH2 0x2E1 JUMP JUMPDEST JUMPDEST PUSH2 0x542 DUP6 DUP3 DUP7 ADD PUSH2 0x3F4 JUMP JUMPDEST SWAP3 POP POP PUSH1 0x20 DUP4 ADD CALLDATALOAD PUSH8 0xFFFFFFFFFFFFFFFF DUP2 GT ISZERO PUSH2 0x563 JUMPI PUSH2 0x562 PUSH2 0x2E1 JUMP JUMPDEST JUMPDEST PUSH2 0x56F DUP6 DUP3 DUP7 ADD PUSH2 0x4D6 JUMP JUMPDEST SWAP2 POP POP SWAP3 POP SWAP3 SWAP1 POP JUMP JUMPDEST PUSH0 PUSH1 0x20 DUP3 DUP5 SUB SLT ISZERO PUSH2 0x58E JUMPI PUSH2 0x58D PUSH2 0x2DD JUMP JUMPDEST JUMPDEST PUSH0 DUP3 ADD CALLDATALOAD PUSH8 0xFFFFFFFFFFFFFFFF DUP2 GT ISZERO PUSH2 0x5AB JUMPI PUSH2 0x5AA PUSH2 0x2E1 JUMP JUMPDEST JUMPDEST PUSH2 0x5B7 DUP5 DUP3 DUP6 ADD PUSH2 0x3F4 JUMP JUMPDEST SWAP2 POP POP SWAP3 SWAP2 POP POP JUMP JUMPDEST PUSH0 DUP2 MLOAD SWAP1 POP SWAP2 SWAP1 POP JUMP JUMPDEST PUSH0 DUP3 DUP3 MSTORE PUSH1 0x20 DUP3 ADD SWAP1 POP SWAP3 SWAP2 POP POP JUMP JUMPDEST DUP3 DUP2 DUP4 MCOPY PUSH0 DUP4 DUP4 ADD MSTORE POP POP POP JUMP JUMPDEST PUSH0 PUSH2 0x5F2 DUP3 PUSH2 0x5C0 JUMP JUMPDEST PUSH2 0x5FC DUP2 DUP6 PUSH2 0x5CA JUMP JUMPDEST SWAP4 POP PUSH2 0x60C DUP2 DUP6 PUSH1 0x20 DUP7 ADD PUSH2 0x5DA JUMP JUMPDEST PUSH2 0x615 DUP2 PUSH2 0x2ED JUMP JUMPDEST DUP5 ADD SWAP2 POP POP SWAP3 SWAP2 POP POP JUMP JUMPDEST PUSH0 DUP2 MLOAD SWAP1 POP SWAP2 SWAP1 POP JUMP JUMPDEST PUSH0 DUP3 DUP3 MSTORE PUSH1 0x20 DUP3 ADD SWAP1 POP SWAP3 SWAP2 POP POP JUMP JUMPDEST PUSH0 DUP2 SWAP1 POP PUSH1 0x20 DUP3 ADD SWAP1 POP SWAP2 SWAP1 POP JUMP JUMPDEST PUSH0 DUP3 DUP3 MSTORE PUSH1 0x20 DUP3 ADD SWAP1 POP SWAP3 SWAP2 POP POP JUMP JUMPDEST PUSH0 PUSH2 0x663 DUP3 PUSH2 0x5C0 JUMP JUMPDEST PUSH2 0x66D DUP2 DUP6 PUSH2 0x649 JUMP JUMPDEST SWAP4 POP PUSH2 0x67D DUP2 DUP6 PUSH1 0x20 DUP7 ADD PUSH2 0x5DA JUMP JUMPDEST PUSH2 0x686 DUP2 PUSH2 0x2ED JUMP JUMPDEST DUP5 ADD SWAP2 POP POP SWAP3 SWAP2 POP POP JUMP JUMPDEST PUSH0 PUSH2 0x69C DUP4 DUP4 PUSH2 0x659 JUMP JUMPDEST SWAP1 POP SWAP3 SWAP2 POP POP JUMP JUMPDEST PUSH0 PUSH1 0x20 DUP3 ADD SWAP1 POP SWAP2 SWAP1 POP JUMP JUMPDEST PUSH0 PUSH2 0x6BA DUP3 PUSH2 0x620 JUMP JUMPDEST PUSH2 0x6C4 DUP2 DUP6 PUSH2 0x62A JUMP JUMPDEST SWAP4 POP DUP4 PUSH1 0x20 DUP3 MUL DUP6 ADD PUSH2 0x6D6 DUP6 PUSH2 0x63A JUMP JUMPDEST DUP1 PUSH0 JUMPDEST DUP6 DUP2 LT ISZERO PUSH2 0x711 JUMPI DUP5 DUP5 SUB DUP10 MSTORE DUP2 MLOAD PUSH2 0x6F2 DUP6 DUP3 PUSH2 0x691 JUMP JUMPDEST SWAP5 POP PUSH2 0x6FD DUP4 PUSH2 0x6A4 JUMP JUMPDEST SWAP3 POP PUSH1 0x20 DUP11 ADD SWAP10 POP POP PUSH1 0x1 DUP2 ADD SWAP1 POP PUSH2 0x6D9 JUMP JUMPDEST POP DUP3 SWAP8 POP DUP8 SWAP6 POP POP POP POP POP POP SWAP3 SWAP2 POP POP JUMP JUMPDEST PUSH0 DUP2 SWAP1 POP SWAP2 SWAP1 POP JUMP JUMPDEST PUSH2 0x735 DUP2 PUSH2 0x723 JUMP JUMPDEST DUP3 MSTORE POP POP JUMP JUMPDEST PUSH0 PUSH1 0x80 DUP3 ADD SWAP1 POP DUP2 DUP2 SUB PUSH0 DUP4 ADD MSTORE PUSH2 0x753 DUP2 DUP8 PUSH2 0x5E8 JUMP JUMPDEST SWAP1 POP DUP2 DUP2 SUB PUSH1 0x20 DUP4 ADD MSTORE PUSH2 0x767 DUP2 DUP7 PUSH2 0x6B0 JUMP JUMPDEST SWAP1 POP PUSH2 0x776 PUSH1 0x40 DUP4 ADD DUP6 PUSH2 0x72C JUMP JUMPDEST PUSH2 0x783 PUSH1 0x60 DUP4 ADD DUP5 PUSH2 0x72C JUMP JUMPDEST SWAP6 SWAP5 POP POP POP POP POP JUMP JUMPDEST PUSH0 DUP2 SWAP1 POP SWAP3 SWAP2 POP POP JUMP JUMPDEST PUSH0 PUSH2 0x7A0 DUP3 PUSH2 0x5C0 JUMP JUMPDEST PUSH2 0x7AA DUP2 DUP6 PUSH2 0x78C JUMP JUMPDEST SWAP4 POP PUSH2 0x7BA DUP2 DUP6 PUSH1 0x20 DUP7 ADD PUSH2 0x5DA JUMP JUMPDEST DUP1 DUP5 ADD SWAP2 POP POP SWAP3 SWAP2 POP POP JUMP JUMPDEST PUSH0 PUSH2 0x7D1 DUP3 DUP5 PUSH2 0x796 JUMP JUMPDEST SWAP2 POP DUP2 SWAP1 POP SWAP3 SWAP2 POP POP JUMP JUMPDEST PUSH32 0x4E487B7100000000000000000000000000000000000000000000000000000000 PUSH0 MSTORE PUSH1 0x22 PUSH1 0x4 MSTORE PUSH1 0x24 PUSH0 REVERT JUMPDEST PUSH0 PUSH1 0x2 DUP3 DIV SWAP1 POP PUSH1 0x1 DUP3 AND DUP1 PUSH2 0x820 JUMPI PUSH1 0x7F DUP3 AND SWAP2 POP JUMPDEST PUSH1 0x20 DUP3 LT DUP2 SUB PUSH2 0x833 JUMPI PUSH2 0x832 PUSH2 0x7DC JUMP JUMPDEST JUMPDEST POP SWAP2 SWAP1 POP JUMP JUMPDEST PUSH0 DUP2 SWAP1 POP DUP2 PUSH0 MSTORE PUSH1 0x20 PUSH0 KECCAK256 SWAP1 POP SWAP2 SWAP1 POP JUMP JUMPDEST PUSH0 PUSH1 0x20 PUSH1 0x1F DUP4 ADD DIV SWAP1 POP SWAP2 SWAP1 POP JUMP JUMPDEST PUSH0 DUP3 DUP3 SHL SWAP1 POP SWAP3 SWAP2 POP POP JUMP JUMPDEST PUSH0 PUSH1 0x8 DUP4 MUL PUSH2 0x895 PUSH32 0xFFFFFFFFFFFFFFFFFFFFFFFFFFFFFFFFFFFFFFFFFFFFFFFFFFFFFFFFFFFFFFFF DUP3 PUSH2 0x85A JUMP JUMPDEST PUSH2 0x89F DUP7 DUP4 PUSH2 0x85A JUMP JUMPDEST SWAP6 POP DUP1 NOT DUP5 AND SWAP4 POP DUP1 DUP7 AND DUP5 OR SWAP3 POP POP POP SWAP4 SWAP3 POP POP POP JUMP JUMPDEST PUSH0 DUP2 SWAP1 POP SWAP2 SWAP1 POP JUMP JUMPDEST PUSH0 PUSH2 0x8DA PUSH2 0x8D5 PUSH2 0x8D0 DUP5 PUSH2 0x723 JUMP JUMPDEST PUSH2 0x8B7 JUMP JUMPDEST PUSH2 0x723 JUMP JUMPDEST SWAP1 POP SWAP2 SWAP1 POP JUMP JUMPDEST PUSH0 DUP2 SWAP1 POP SWAP2 SWAP1 POP JUMP JUMPDEST PUSH2 0x8F3 DUP4 PUSH2 0x8C0 JUMP JUMPDEST PUSH2 0x907 PUSH2 0x8FF DUP3 PUSH2 0x8E1 JUMP JUMPDEST DUP5 DUP5 SLOAD PUSH2 0x866 JUMP JUMPDEST DUP3 SSTORE POP POP POP POP JUMP JUMPDEST PUSH0 SWAP1 JUMP JUMPDEST PUSH2 0x91B PUSH2 0x90F JUMP JUMPDEST PUSH2 0x926 DUP2 DUP5 DUP5 PUSH2 0x8EA JUMP JUMPDEST POP POP POP JUMP JUMPDEST JUMPDEST DUP2 DUP2 LT ISZERO PUSH2 0x949 JUMPI PUSH2 0x93E PUSH0 DUP3 PUSH2 0x913 JUMP JUMPDEST PUSH1 0x1 DUP2 ADD SWAP1 POP PUSH2 0x92C JUMP JUMPDEST POP POP JUMP JUMPDEST PUSH1 0x1F DUP3 GT ISZERO PUSH2 0x98E JUMPI PUSH2 0x95F DUP2 PUSH2 0x839 JUMP JUMPDEST PUSH2 0x968 DUP5 PUSH2 0x84B JUMP JUMPDEST DUP2 ADD PUSH1 0x20 DUP6 LT ISZERO PUSH2 0x977 JUMPI DUP2 SWAP1 POP JUMPDEST PUSH2 0x98B PUSH2 0x983 DUP6 PUSH2 0x84B JUMP JUMPDEST DUP4 ADD DUP3 PUSH2 0x92B JUMP JUMPDEST POP POP JUMPDEST POP POP POP JUMP JUMPDEST PUSH0 DUP3 DUP3 SHR SWAP1 POP SWAP3 SWAP2 POP POP JUMP JUMPDEST PUSH0 PUSH2 0x9AE PUSH0 NOT DUP5 PUSH1 0x8 MUL PUSH2 0x993 JUMP JUMPDEST NOT DUP1 DUP4 AND SWAP2 POP POP SWAP3 SWAP2 POP POP JUMP JUMPDEST PUSH0 PUSH2 0x9C6 DUP4 DUP4 PUSH2 0x99F JUMP JUMPDEST SWAP2 POP DUP3 PUSH1 0x2 MUL DUP3 OR SWAP1 POP SWAP3 SWAP2 POP POP JUMP JUMPDEST PUSH2 0x9DF DUP3 PUSH2 0x5C0 JUMP JUMPDEST PUSH8 0xFFFFFFFFFFFFFFFF DUP2 GT ISZERO PUSH2 0x9F8 JUMPI PUSH2 0x9F7 PUSH2 0x2FD JUMP JUMPDEST JUMPDEST PUSH2 0xA02 DUP3 SLOAD PUSH2 0x809 JUMP JUMPDEST PUSH2 0xA0D DUP3 DUP3 DUP6 PUSH2 0x94D JUMP JUMPDEST PUSH0 PUSH1 0x20 SWAP1 POP PUSH1 0x1F DUP4 GT PUSH1 0x1 DUP2 EQ PUSH2 0xA3E JUMPI PUSH0 DUP5 ISZERO PUSH2 0xA2C JUMPI DUP3 DUP8 ADD MLOAD SWAP1 POP JUMPDEST PUSH2 0xA36 DUP6 DUP3 PUSH2 0x9BB JUMP JUMPDEST DUP7 SSTORE POP PUSH2 0xA9D JUMP JUMPDEST PUSH1 0x1F NOT DUP5 AND PUSH2 0xA4C DUP7 PUSH2 0x839 JUMP JUMPDEST PUSH0 JUMPDEST DUP3 DUP2 LT ISZERO PUSH2 0xA73 JUMPI DUP5 DUP10 ADD MLOAD DUP3 SSTORE PUSH1 0x1 DUP3 ADD SWAP2 POP PUSH1 0x20 DUP6 ADD SWAP5 POP PUSH1 0x20 DUP2 ADD SWAP1 POP PUSH2 0xA4E JUMP JUMPDEST DUP7 DUP4 LT ISZERO PUSH2 0xA90 JUMPI DUP5 DUP10 ADD MLOAD PUSH2 0xA8C PUSH1 0x1F DUP10 AND DUP3 PUSH2 0x99F JUMP JUMPDEST DUP4 SSTORE POP JUMPDEST PUSH1 0x1 PUSH1 0x2 DUP9 MUL ADD DUP9 SSTORE POP POP POP JUMPDEST POP POP POP POP POP POP JUMP JUMPDEST PUSH32 0x4E487B7100000000000000000000000000000000000000000000000000000000 PUSH0 MSTORE PUSH1 0x32 PUSH1 0x4 MSTORE PUSH1 0x24 PUSH0 REVERT INVALID LOG2 PUSH5 0x6970667358 0x22 SLT KECCAK256 0xC4 ISZERO 0xD8 DUP6 SLT 0xA8 BLOBBASEFEE SWAP12 SWAP4 SWAP15 0xE5 JUMPDEST BLOCKHASH 0xCD NOT DUP11 0xAB 0xE6 0xEB DIV NUMBER 0xEE SSTORE 0x2D 0xAF 0xB4 0xAB PUSH20 0x7CE221C164736F6C634300081A00330000000000 "
				},
				"gasEstimates": {
					"creation": {
						"codeDepositCost": "564800",
						"executionCost": "598",
						"totalCost": "565398"
					},
					"external": {
						"getData(string)": "infinite",
						"storeData(string,string[])": "infinite"
					}
				},
				"methodIdentifiers": {
					"getData(string)": "ae55c888",
					"storeData(string,string[])": "7c59fdd8"
				}
			},
			"storageLayout": {
				"storage": [
					{
						"astId": 16,
						"contract": "contracts/IPFSStorage.sol:IPFSStorage",
						"label": "ipfsData",
						"offset": 0,
						"slot": "0",
						"type": "t_mapping(t_string_memory_ptr,t_struct(IPFSData)11_storage)"
					}
				],
				"types": {
					"t_array(t_string_storage)dyn_storage": {
						"base": "t_string_storage",
						"encoding": "dynamic_array",
						"label": "string[]",
						"numberOfBytes": "32"
					},
					"t_mapping(t_string_memory_ptr,t_struct(IPFSData)11_storage)": {
						"encoding": "mapping",
						"key": "t_string_memory_ptr",
						"label": "mapping(string => struct IPFSStorage.IPFSData)",
						"numberOfBytes": "32",
						"value": "t_struct(IPFSData)11_storage"
					},
					"t_string_memory_ptr": {
						"encoding": "bytes",
						"label": "string",
						"numberOfBytes": "32"
					},
					"t_string_storage": {
						"encoding": "bytes",
						"label": "string",
						"numberOfBytes": "32"
					},
					"t_struct(IPFSData)11_storage": {
						"encoding": "inplace",
						"label": "struct IPFSStorage.IPFSData",
						"members": [
							{
								"astId": 3,
								"contract": "contracts/IPFSStorage.sol:IPFSStorage",
								"label": "targetContractAddress",
								"offset": 0,
								"slot": "0",
								"type": "t_string_storage"
							},
							{
								"astId": 6,
								"contract": "contracts/IPFSStorage.sol:IPFSStorage",
								"label": "hashes",
								"offset": 0,
								"slot": "1",
								"type": "t_array(t_string_storage)dyn_storage"
							},
							{
								"astId": 8,
								"contract": "contracts/IPFSStorage.sol:IPFSStorage",
								"label": "timestamp",
								"offset": 0,
								"slot": "2",
								"type": "t_uint256"
							},
							{
								"astId": 10,
								"contract": "contracts/IPFSStorage.sol:IPFSStorage",
								"label": "blockNumber",
								"offset": 0,
								"slot": "3",
								"type": "t_uint256"
							}
						],
						"numberOfBytes": "128"
					},
					"t_uint256": {
						"encoding": "inplace",
						"label": "uint256",
						"numberOfBytes": "32"
					}
				}
			},
			"userdoc": {
				"kind": "user",
				"methods": {},
				"version": 1
			}
		}
	}
}